:100000000C9458000C9480000C9480000C94800098
:100010000C9480000C9480000C9480000C94800060
:100020000C9480000C9480000C9480000C94800050
:100030000C9480000C9480000C9480000C94800040
:100040000C94CC030C9480000C9480000C948000E1
:100050000C9480000C9480000C9480000C94800020
:100060000C9416040C948000000000002500280069
:100070002B00040404040404040402020202020229
:10008000030303030303010204081020408001025C
:1000900004081020010204081020000000080002DB
:1000A0000100000304070000000000000000350507
:1000B00011241FBECFEFD8E0DEBFCDBF11E0A0E01E
:1000C000B1E0E4EAFCE002C005900D92AA34B10769
:1000D000D9F722E0AAE4B1E001C01D92A532B2072F
:1000E000E1F710E0C8E5D0E004C02197FE010E94CE
:1000F0004A06C735D107C9F70E9455050C9450062A
:100100000C94000008950895AF92BF92CF92DF92B1
:10011000EF92FF920F931F93CF93DF936C017B01BC
:100120008B01040F151FEB015E01AE18BF08C0174D
:10013000D10759F06991D601ED91FC910190F081C0
:10014000E02DC6010995892B79F7C501DF91CF9183
:100150001F910F91FF90EF90DF90CF90BF90AF90E5
:10016000089590E0FC01E656FF4F2491FC01EA5708
:10017000FF4F3491FC01EE58FF4FE491EE23C9F09C
:10018000222339F0233001F1A8F4213019F1223073
:1001900029F1F0E0EE0FFF1FE859FF4FA591B49150
:1001A0008FB7F894EC91611126C030953E233C93B3
:1001B0008FBF08952730A9F02830C9F0243049F7BF
:1001C000809180008F7D03C0809180008F77809325
:1001D0008000DFCF84B58F7784BDDBCF84B58F7D82
:1001E000FBCF8091B0008F778093B000D2CF809109
:1001F000B0008F7DF9CF3E2BDACF3FB7F8948091D6
:10020000010290910202A0910302B091040226B56E
:10021000A89B05C02F3F19F00196A11DB11D3FBF3E
:10022000BA2FA92F982F8827BC01CD01620F711D0D
:10023000811D911D42E0660F771F881F991F4A9507
:10024000D1F708958F929F92AF92BF92CF92DF9293
:10025000EF92FF924B015C010E94FD006B017C015B
:100260000E94FD006C197D098E099F09683E73404C
:1002700081059105A8F321E0821A9108A108B1082F
:1002800088EEC80E83E0D81EE11CF11C8114910495
:10029000A104B10429F7FF90EF90DF90CF90BF90B9
:1002A000AF909F908F900895089520918B01260F15
:1002B0003327331F21323105ECF42091D401FC01A6
:1002C00090E080E0243069F082E00895A0918B01F5
:1002D0002191AC0145595E4FA40FB52FB11D2C9350
:1002E0000196861798F380918B01680F60938B01BC
:1002F00080E0089581E008951092D40181E0809318
:10030000D3011092AE0161E082E10E94B10061E090
:1003100083E10E94B100E9EBF0E080818E7F808371
:1003200080818D7F808388E48093B80085E480930A
:10033000BC000895CF93DF9391E090936A018823E6
:10034000B9F0C091B800D091BA008091BC008A7B0E
:100350008093BC0060E082E10E94B10060E083E134
:100360000E94B1000E947C01D093BA00C093B800F3
:10037000DF91CF9108950895E0910C0280910B02D6
:10038000E81730F4F0E0E65BFE4F808190E00895DE
:100390008FEF9FEF089590910C0280910B022FEF49
:1003A0003FEF981748F4E92FF0E0E65BFE4F20811D
:1003B00030E09F5F90930C02C901089580910B0279
:1003C00090910C02891B990B0895CF92DF92EF92C6
:1003D000FF920F931F93CF93DF937C01CB018A0190
:1003E0002091DA01222389F0EB016B01C40ED51EA6
:1003F000CC15DD0569F06991D701ED91FC91019073
:10040000F081E02DC7010995F3CF642F0E945501BB
:10041000C801DF91CF911F910F91FF90EF90DF9076
:10042000CF900895CF93DF931F92CDB7DEB7698346
:100430002091DA012223F9F020910902203258F0AC
:1004400021E030E0FC013383228390E080E00F90D4
:10045000DF91CF91089580910A02E82FF0E0E552F4
:10046000FE4F998190838F5F80930A0280930902E7
:1004700081E090E0ECCF61E0CE0101960E94550151
:10048000F7CFCF92DF92EF92FF920F931F93CF930C
:10049000DF93FC01C48121E02093DA01C093FB01CA
:1004A00010920A02109209028385682B8DE092E077
:1004B0000E941202D0910902D13208F092C00E942B
:1004C000FD006B017C018091D401811165C082E047
:1004D0008093D40181E08093D3018FEF8093D20188
:1004E0001092D101D093D001ABEDB1E0E0EBF1E09F
:1004F00080E0D81385C01092AF018091AF01CC0F7E
:10050000C82BC093AF018091AE01813009F07CC04F
:100510001092AE010E94FD006B017C018091AF0141
:100520008093BB008091D6019091D701A091D80112
:10053000B091D901892B8A2B8B2B99F00E94FD0059
:100540000091D6011091D7012091D8013091D901A5
:100550006C197D098E099F090617170728073907A7
:10056000E0F18091BC0083FDD9CF85EC8093BC0085
:100570000E94FD006B017C018091D401823009F45E
:1005800045C08091D2018F3F61F18091D2018032CC
:1005900041F18091D20125C08091D6019091D7017F
:1005A000A091D801B091D901892B8A2B8B2B09F40A
:1005B0008ACF0E94FD000091D6011091D7012091B1
:1005C000D8013091D9016C197D098E099F09061750
:1005D00017072807390708F076CF8091D5010E94C8
:1005E0009A0110920A02109209021092DA01DF9128
:1005F000CF911F910F91FF90EF90DF90CF900895D2
:100600009D9191938F5F75CF85EEB0CF8091D6018C
:100610009091D701A091D801B091D901892B8A2B53
:100620008B2B09F4A9CF0E94FD000091D6011091F7
:10063000D7012091D8013091D9016C197D098E091B
:100640009F09061717072807390708F095CFC5CF68
:1006500090E080E008950F931F93CF938C01C62FF5
:100660000E9441026C2F6460C8010E9441026C2FFD
:100670006B7FC8010E94410283EC90E00197F1F783
:10068000CF911F910F9108950F931F93CF93DF93F5
:100690008C01D62FC42F607F642B0E942B0380E136
:1006A000D89FB00111246C2BC801DF91CF911F910D
:1006B0000F910C942B03CF93DF93CDB7DEB7289720
:1006C0000FB6F894DEBF0FBECDBF98E0E0E0F1E0DA
:1006D000DE01119601900D929A95E1F79091210219
:1006E000961708F46FEF262F30E0220F331F41E0FA
:1006F00050E04C0F5D1F240F351FF9016081680F1A
:10070000606840E089E192E028960FB6F894DEBF79
:100710000FBECDBFDF91CF910C94440341E00E9406
:10072000440381E090E0089585ED8093BC008091C2
:10073000D6019091D701A091D801B091D901079627
:10074000A11DB11D23E0B695A795979587952A958C
:10075000D1F72091BC0024FD03C01092D40108956C
:100760004091D6015091D7016091D8017091D90183
:10077000452B462B472B69F30097A105B10541F0A6
:1007800025E32A95F1F700000197A109B109E1CF0E
:100790008091D5010C949A011F920F920FB60F927F
:1007A00011242F933F938F939F93AF93BF93809187
:1007B000FD019091FE01A091FF01B09100023091E6
:1007C000FC0123E0230F2D3758F50196A11DB11D23
:1007D0002093FC018093FD019093FE01A093FF0103
:1007E000B09300028091010290910202A091030255
:1007F000B09104020196A11DB11D80930102909356
:100800000202A0930302B0930402BF91AF919F91A3
:100810008F913F912F910F900FBE0F901F901895C1
:1008200026E8230F0296A11DB11DD2CF1F920F9271
:100830000FB60F9211242F933F934F935F936F93B3
:100840007F938F939F93AF93BF93EF93FF93809189
:10085000B900887F803609F44AC0F0F5883209F47F
:10086000A7C018F5803109F49BC0B8F4882309F4B7
:10087000F9C0883009F494C0FF91EF91BF91AF9116
:100880009F918F917F916F915F914F913F912F91A8
:100890000F900FBE0F901F901895883109F488C0F3
:1008A000803251F78093D20114C0803409F49DC086
:1008B00040F48033B9F38833F9F68093D20185ECA4
:1008C000B0C0803509F485C0883509F496C08834F5
:1008D00099F60E949403D0CF883909F48CC038F57A
:1008E000883729F050F4883611F0803729F683E0F4
:1008F0008093D4011092AD0157C0883809F47BC0B1
:10090000803919F0803809F0B7CF8091AD0180327D
:1009100008F071C0E091AD0181E08E0F8093AD01D0
:100920008091BB00F0E0E357FE4F80833DC0803BE9
:1009300039F0E0F4803A09F479C0883A09F09CCFA4
:1009400084E08093D40110928C0110928B01E0918D
:100950000702F0910802099580918B0181110FC067
:1009600081E080938B0110926B0109C0803C09F4F7
:10097000A6CF883C09F4A3CF883B09F07DCFE09156
:100980008C0181E08E0F80938C01F0E0E559FE4FE1
:1009900080818093BB0090918C0180918B0129C054
:1009A0008091AF018093BB0085EC8093BC0064CF45
:1009B0009091D1018091D001981758F5E091D10123
:1009C00081E08E0F8093D101F0E0E055FE4F8081F1
:1009D000E9CFE091D10181E08E0F8093D101809128
:1009E000BB00F0E0E055FE4F80839091D1018091F3
:1009F000D0019817C8F285E8D8CFE091D10181E005
:100A00008E0F8093D1018091BB00F0E0E055FE4F46
:100A100080838091D30181115CCF81E08093AE010E
:100A200084EA8093BC001092D40126CF85EC809399
:100A3000BC001092D4018091AD01803230F4E0917D
:100A4000AD01F0E0E357FE4F10826091AD0170E020
:100A5000E0910502F09106028DE891E0099510926F
:100A6000AD010ACF1092D20134CFEDE0F2E0138253
:100A7000128288EE93E0A0E0B0E084839583A683A1
:100A8000B7838CE091E091838083E9E1F2E0138207
:100A900012828EE191E09183808381E2848380E100
:100AA000818782E0828713860895789484B5826076
:100AB00084BD84B5816084BD85B5826085BD85B502
:100AC000816085BD80916E00816080936E00109280
:100AD00081008091810082608093810080918100FB
:100AE000816080938100809180008160809380008C
:100AF0008091B10084608093B1008091B0008160EA
:100B00008093B00080917A00846080937A00809115
:100B10007A00826080937A0080917A00816080936D
:100B20007A0080917A00806880937A001092C100E8
:100B300010920C0210920B0210920A0210920902FB
:100B40000E947C0182E890E0909308028093070263
:100B500083E890E0909306028093050210921E02B3
:100B600080912302823018F098E090931E028093C7
:100B7000210262E370E080E090E00E942201609137
:100B8000240289E192E00E94410268EE73E080E075
:100B900090E00E94220160E389E192E00E942B0331
:100BA000CBE4D6E4CE010197F1F760E389E192E06E
:100BB0000E942B032197F1F760E389E192E00E9404
:100BC0002B0383E592E00197F1F760E289E192E07F
:100BD0000E942B0360911E02606240E089E192E076
:100BE0000E94440384E080931F0240E06CE089E1AE
:100BF00092E00E94440340E061E089E192E00E94BB
:100C00004403CBE3DFE1CE010197F1F782E080936B
:100C1000200240E066E089E192E00E94440340E067
:100C200062E089E192E00E9444032197F1F788E0B5
:100C30008093240260E089E192E00E94410260E03A
:100C400088E00E945B0341E150E066E271E089E1E7
:100C500092E00E94840061E081E00E945B0340E139
:100C600050E068E371E089E192E00E948400C0E016
:100C7000D0E040E06CE189E192E00E94440364E648
:100C800070E080E090E00E942201209791F30E94A2
:100C90000000EFCFEE0FFF1F0590F491E02D0994B7
:040CA000F894FFCFF6
:100CA4000000400014005400000000001202E5019E
:100CB4002803BB01DE01CB01BC01000000008E0350
:100CC40084002803540152414D532050524F47523F
:100CD400414D4143494F4E00494E47204145524FF3
:0A0CE400455350414349414C0000C4
:00000001FF
