:100000000C9458000C9480000C9480000C94800098
:100010000C9480000C9480000C9480000C94800060
:100020000C9480000C9480000C9480000C94800050
:100030000C9480000C9480000C9480000C94800040
:100040000C9481030C9480000C944F030C942903AE
:100050000C9480000C9480000C9480000C94800020
:100060000C94CB030C9480000000000025002800B5
:100070002B00040404040404040402020202020229
:10008000030303030303010204081020408001025C
:1000900004081020010204081020000000080002DB
:1000A0000100000304070000000000000000EA0453
:1000B00011241FBECFEFD8E0DEBFCDBF11E0A0E01E
:1000C000B1E0E6E6FEE002C005900D92A832B1076D
:1000D000D9F722E0A8E2B1E001C01D92A639B2072B
:1000E000E1F710E0C8E5D0E004C02197FE010E94CE
:1000F0002B07C735D107C9F70E9423050C94310798
:100100000C94000008950895AF92BF92CF92DF92B1
:10011000EF92FF920F931F93CF93DF936C017B01BC
:100120008B01040F151FEB015E01AE18BF08C0174D
:10013000D10759F06991D601ED91FC910190F081C0
:10014000E02DC6010995892B79F7C501DF91CF9183
:100150001F910F91FF90EF90DF90CF90BF90AF90E5
:100160000895FC01538D448D252F30E0842F90E0BD
:10017000821B930B541710F0CF96089501970895A2
:10018000FC01918D828D981761F0A28DAE0FBF2F6B
:10019000B11D5D968C91928D9F5F9F73928F90E0C1
:1001A00008958FEF9FEF0895FC01918D828D981730
:1001B00031F0828DE80FF11D858D90E008958FEF6D
:1001C0009FEF0895FC01918D228D892F90E0805C36
:1001D0009F4F821B91098F73992708958DEE91E0AF
:1001E0000E94E20021E0892B09F420E0822F08958B
:1001F00080E090E0892B29F00E94EE0081110C94A0
:1002000000000895FC01A48DA80FB92FB11DA35AB9
:10021000BF4F2C91848D90E001968F739927848F26
:10022000A689B7892C93A089B1898C918370806449
:100230008C93938D848D981306C00288F389E02DEA
:1002400080818F7D80830895EF92FF920F931F939B
:10025000CF93DF93EC0181E0888F9B8D8C8D981379
:100260001AC0E889F989808185FF15C09FB7F89485
:10027000EE89FF896083E889F989808183708064D1
:1002800080839FBF81E090E0DF91CF911F910F911C
:10029000FF90EF900895F62E0B8D10E00F5F1F4F2B
:1002A0000F731127E02E8C8D8E110CC00FB607FC3A
:1002B000FACFE889F989808185FFF5CFCE010E94C8
:1002C0000201F1CFEB8DEC0FFD2FF11DE35AFF4F33
:1002D000F0829FB7F8940B8FEA89FB898081806256
:1002E000CFCFCF93DF93EC01888D8823B9F0AA8913
:1002F000BB89E889F9898C9185FD03C0808186FDE1
:100300000DC00FB607FCF7CF8C9185FFF2CF80812F
:1003100085FFEDCFCE010E940201E9CFDF91CF91A1
:10032000089590E0FC01E656FF4F2491FC01EA5746
:10033000FF4F3491FC01EE58FF4FE491EE23C9F0DA
:10034000222339F0233001F1A8F4213019F12230B1
:1003500029F1F0E0EE0FFF1FE859FF4FA591B4918E
:100360008FB7F894EC91611126C030953E233C93F1
:100370008FBF08952730A9F02830C9F0243049F7FD
:10038000809180008F7D03C0809180008F77809363
:100390008000DFCF84B58F7784BDDBCF84B58F7DC0
:1003A000FBCF8091B0008F778093B000D2CF809147
:1003B000B0008F7DF9CF3E2BDACF3FB7F894809114
:1003C000910190919201A0919301B091940126B571
:1003D000A89B05C02F3F19F00196A11DB11D3FBF7D
:1003E000BA2FA92F982F8827BC01CD01620F711D4C
:1003F000811D911D42E0660F771F881F991F4A9546
:10040000D1F7089520916901260F3327331F213238
:100410003105ECF42091C101FC0190E080E0243032
:1004200069F082E00895A09169012191AC01475BD8
:100430005E4FA40FB52FB11D2C930196861798F32C
:1004400080916901680F6093690180E0089581E0FF
:1004500008951092C10181E08093C00110929B0128
:1004600061E082E10E94910161E083E10E949101DB
:10047000E9EBF0E080818E7F808380818D7F8083B7
:1004800088E48093B80085E48093BC000895CF93FE
:10049000DF9391E0909348018823B9F0C091B800B0
:1004A000D091BA008091BC008A7B8093BC0060E050
:1004B00082E10E94910160E083E10E9491010E942B
:1004C0002902D093BA00C093B800DF91CF9108956C
:1004D0000895E0919A0180919901E81730F4F0E0D5
:1004E000E85DFE4F808190E008958FEF9FEF0895C3
:1004F00090919A01809199012FEF3FEF981748F45E
:10050000E92FF0E0E85DFE4F208130E09F5F90939F
:100510009A01C90108958091990190919A01891BCE
:10052000990B0895CF92DF92EF92FF920F931F9352
:10053000CF93DF937C01CB018A012091C701222355
:1005400089F0EB016B01C40ED51ECC15DD0569F0F9
:100550006991D701ED91FC910190F081E02DC701E7
:100560000995F3CF642F0E940202C801DF91CF9159
:100570001F910F91FF90EF90DF90CF900895CF9350
:10058000DF931F92CDB7DEB769832091C701222385
:10059000F9F02091EA01203258F021E030E0FC012E
:1005A0003383228390E080E00F90DF91CF91089514
:1005B0008091C801E82FF0E0E753FE4F99819083C6
:1005C0008F5F8093C8018093EA0181E090E0ECCFD7
:1005D00061E0CE0101960E940202F7CF90E080E038
:1005E000089585ED8093BC008091C3019091C40172
:1005F000A091C501B091C6010796A11DB11D23E0D0
:10060000B695A795979587952A95D1F72091BC0027
:1006100024FD03C01092C10108954091C30150917F
:10062000C4016091C5017091C601452B462B472B33
:1006300069F30097A105B10541F025E32A95F1F78B
:1006400000000197A109B109E1CF8091C2010C948A
:1006500047021F920F920FB60F9211242F933F93D0
:100660004F935F936F937F938F939F93AF93BF93BA
:10067000EF93FF938DEE91E00E940201FF91EF91C5
:10068000BF91AF919F918F917F916F915F914F91AA
:100690003F912F910F900FBE0F901F9018951F92B2
:1006A0000F920FB60F9211242F938F939F93EF9376
:1006B000FF93E091FD01F091FE018081E091030242
:1006C000F091040282FD1BC09081809106028F5F31
:1006D0008F7320910702821741F0E0910602F0E04B
:1006E000E351FE4F958F80930602FF91EF919F910A
:1006F0008F912F910F900FBE0F901F9018958081B2
:10070000F4CF1F920F920FB60F9211242F933F93A5
:100710008F939F93AF93BF9380918D0190918E01A2
:10072000A0918F01B091900130918C0123E0230FB3
:100730002D3758F50196A11DB11D20938C01809392
:100740008D0190938E01A0938F01B09390018091C1
:10075000910190919201A0919301B0919401019621
:10076000A11DB11D8093910190939201A0939301DB
:10077000B0939401BF91AF919F918F913F912F9131
:100780000F900FBE0F901F90189526E8230F02962A
:10079000A11DB11DD2CF1F920F920FB60F9211243F
:1007A0002F933F934F935F936F937F938F939F9379
:1007B000AF93BF93EF93FF938091B900887F80360A
:1007C00009F44AC0F0F5883209F4A7C018F5803161
:1007D00009F49BC0B8F4882309F4F9C0883009F4FF
:1007E00094C0FF91EF91BF91AF919F918F917F91B5
:1007F0006F915F914F913F912F910F900FBE0F908E
:100800001F901895883109F488C0803251F7809381
:10081000BF0114C0803409F49DC040F48033B9F3A3
:100820008833F9F68093BF0185ECB0C0803509F4B8
:1008300085C0883509F496C0883499F60E94F10283
:10084000D0CF883909F48CC038F5883729F050F4B6
:10085000883611F0803729F683E08093C101109229
:100860008B0157C0883809F47BC0803919F0803873
:1008700009F0B7CF80918B01803208F071C0E09110
:100880008B0181E08E0F80938B018091BB00F0E0A3
:10089000E559FE4F80833DC0803B39F0E0F4803A5B
:1008A00009F479C0883A09F09CCF84E08093C101B3
:1008B00010926A0110926901E0919701F0919801FC
:1008C00009958091690181110FC081E080936901D0
:1008D0001092490109C0803C09F4A6CF883C09F474
:1008E000A3CF883B09F07DCFE0916A0181E08E0FB4
:1008F00080936A01F0E0E75BFE4F80818093BB004C
:1009000090916A018091690129C080919C01809336
:10091000BB0085EC8093BC0064CF9091BE018091B8
:10092000BD01981758F5E091BE0181E08E0F8093CC
:10093000BE01F0E0E356FE4F8081E9CFE091BE01B9
:1009400081E08E0F8093BE018091BB00F0E0E35602
:10095000FE4F80839091BE018091BD019817C8F22F
:1009600085E8D8CFE091BE0181E08E0F8093BE0173
:100970008091BB00F0E0E356FE4F80838091C00180
:1009800081115CCF81E080939B0184EA8093BC005D
:100990001092C10126CF85EC8093BC001092C1015A
:1009A00080918B01803230F4E0918B01F0E0E559C9
:1009B000FE4F108260918B0170E0E0919501F09103
:1009C00096018BE691E0099510928B010ACF109267
:1009D000BF0134CFEDEEF1E01382128288EE93E096
:1009E000A0E0B0E084839583A683B78324E031E060
:1009F0003183208325EC30E03587248724EC30E0F8
:100A00003787268720EC30E0318B208B21EC30E0DB
:100A1000338B228B22EC30E0358B248B26EC30E0BC
:100A2000378B268B118E128E138E148EEAE8F2E02D
:100A30001382128284839583A683B78386E191E033
:100A4000918380830895CF93DF93CDB7DEB7A197CD
:100A50000FB6F894DEBF0FBECDBF789484B5826028
:100A600084BD84B5816084BD85B5826085BD85B552
:100A7000816085BD80916E00816080936E001092D0
:100A8000810080918100826080938100809181004B
:100A900081608093810080918000816080938000DC
:100AA0008091B10084608093B1008091B00081603A
:100AB0008093B00080917A00846080937A00809166
:100AC0007A00826080937A0080917A0081608093BE
:100AD0007A0080917A00806880937A001092C10039
:100AE000E091FD01F091FE0182E08083E091F90147
:100AF000F091FA011082E091FB01F091FC018FEC82
:100B0000808310920502E0910102F091020286E0DA
:100B10008083E091FF01F0910002808180618083F9
:100B2000E091FF01F0910002808188608083E09174
:100B3000FF01F0910002808180688083E091FF01D5
:100B4000F091000280818F7D808310929A01109233
:100B500099011092C8011092EA010E94290282E8CC
:100B600090E0909398018093970183E890E09093B0
:100B70009601809395019AE0C92ED12CE12CF12C9D
:100B800020E0A22E20E0B22E32E0632E88248A9448
:100B90007724739489E0982E2090EB013090EC013B
:100BA000032C000C4408550857FEB3C06DE28DEECF
:100BB00091E00E94240122273327A9012219330939
:100BC0004409550919A28E010F5D1F4FCA01B901D1
:100BD000A70196010E940907605DF80162938F01E9
:100BE000211531054105510589F70115110561F000
:100BF00001900020E9F73197AF01401B510BB8017C
:100C00008DEE91E00E94840042E050E064E271E0E9
:100C10008DEE91E00E9484007092C7019092E901EC
:100C20001092C8011092EA016091EB018AE892E00B
:100C30000E94BF021091EA01113208F0A5C00E9483
:100C4000DD011B012C018091C101811178C06092EE
:100C5000C1019092C0018092BF011092BE01109319
:100C6000BD01A9ECB1E0EDE9F1E01813A8C01092C4
:100C70009C0180919C01826180939C0180919B01E9
:100C8000813009F0A0C010929B010E94DD011B0180
:100C90002C0180919C018093BB008091C3019091B5
:100CA000C401A091C501B091C601892B8A2B8B2B61
:100CB000A1F00E94DD010091C3011091C4012091B7
:100CC000C5013091C6016219730984099509061797
:100CD00017072807390708F453C08091BC0083FD2B
:100CE000D8CFF5ECF093BC000E94DD011B012C0174
:100CF0008091C101823009F46AC08091BF018F3FA9
:100D000009F442C08091BF018032F1F18091BF01AE
:100D10003BC0A201910119A28E010F5D1F4FCA01B4
:100D2000B901A70196010E940907605DF80162936D
:100D30008F01211531054105510589F756CF809165
:100D4000C3019091C401A091C501B091C601892B46
:100D50008A2B8B2B09F477CF0E94DD012091C301F0
:100D60003091C4014091C5015091C60162197309C7
:100D700084099509261737074807590708F063CFF4
:100D80008091C2010E9447021092C8011092EA01AC
:100D90001092C7018091EB019091EC010196909324
:100DA000EC018093EB01A114B10409F4F5CE0E948B
:100DB000EE00882309F4EECE0E940000E9CE9D915A
:100DC00091938F5F52CF85EE8093BC008DCF809141
:100DD000C3019091C401A091C501B091C601892BB6
:100DE0008A2B8B2B09F484CF0E94DD010091C30173
:100DF0001091C4012091C5013091C6016219730997
:100E000084099509061717072807390708F070CFD6
:100E1000B7CFA1E21A2EAA1BBB1BFD010DC0AA1F52
:100E2000BB1FEE1FFF1FA217B307E407F50720F053
:100E3000A21BB30BE40BF50B661F771F881F991FCE
:100E40001A9469F760957095809590959B01AC0117
:100E5000BD01CF010895EE0FFF1F0590F491E02D25
:060E60000994F894FFCF95
:100E66000000000024018400B1007101E200C0000E
:100E7600D40000000000BF029202EE0268028B025C
:080E8600780269020D0A000068
:00000001FF
