:100000000C9438010C9469010C9469010C946901F9
:100010000C9469010C9469010C9469010C946901B8
:100020000C9469010C94B8020C94B8020C94B802B8
:100030000C9469010C9469010C9469010C94690198
:100040000C9469010C9469010C9469010C94690188
:100050000C9469010C9469010C9469010C946E0272
:100060000C9469010C9469010C9469010C94690168
:100070000C9469010C9469010C9469010C94690158
:100080000C9469010C9469010C9469010C94690148
:100090000C9469010C9469010C9469010C94690138
:1000A0000C9469010C9469010C9469010C94690128
:1000B0000C9469010C9469010C9469010C94690118
:1000C0000C9469010C9469010C9469010C94690108
:1000D0000C9469010C9469010C9469010C946901F8
:1000E0000C9469010C9432020C9487030C94B603AF
:1000F0000C947C050C9494030C9490030C949A0338
:100100000C944A020C94B0030C94A8030C9464035E
:100110000C94D6010C94BA030C94A2030C946B02B9
:100120000C94AC030C9483030C949E030C946B010D
:100130000C948A030C94D5010C9427060C947B0331
:100140000C947F030C94BD010C9469030000200003
:100150002300260029002C002F003200000100009F
:1001600003010601090100002100240027002A00E4
:100170002D003000330001010000040107010A01D5
:1001800000002200250028002B002E003100340042
:1001900002010000050108010B0105050505070521
:1001A00008080808020202020A0A080804040404F3
:1001B000010101010101010103030303030303031F
:1001C000040707070C0C0C0C0C0C0C0C02020202AE
:1001D00006060606060606060B0B0B0B0B0B0B0B97
:1001E0000102102020080810204010204080020149
:1001F000020108040201010204081020408080402E
:10020000201008040201800402018040201008042C
:1002100002010804020101020408102040800102CA
:1002200004081020408000000A0B02090C0D0E0883
:1002300007030401000000000000000000000000AF
:1002400000000000000000000000000000000000AE
:10025000000012111000000000000000000000006B
:100260000000000000000000000000007C052706E0
:1002700011241FBECFEFD1E2DEBFCDBF00E00CBF27
:1002800012E0A0E0B2E0EEE4FDE000E00BBF02C04F
:1002900007900D92A631B107D9F722E0A6E1B2E0AE
:1002A00001C01D92A238B207E1F711E0C7E3D1E027
:1002B00000E006C021970109802FFE010E94790607
:1002C000C633D10780E00807A9F70E94C0030C9449
:1002D00095060C940000AF92BF92CF92DF92EF92FE
:1002E000FF920F931F93CF93DF936C017B018B01E0
:1002F000040F151FEB015E01AE18BF08C017D10730
:1003000059F06991D601ED91FC910190F081E02DB9
:10031000C6011995892B79F7C501DF91CF911F91FE
:100320000F91FF90EF90DF90CF90BF90AF90089526
:100330003FB7F89480915B0290915C02A0915D02BE
:10034000B0915E0226B5A89B05C02F3F19F001961B
:10035000A11DB11D3FBFBA2FA92F982F8827BC011F
:10036000CD01620F711D811D911D42E0660F771F47
:10037000881F991F4A95D1F7089520916102309105
:1003800062022817390771F490915F028091600230
:10039000981741F0E0915F02F0E0EA5EFD4F808146
:1003A00090E008958FEF9FEF08950895EF92FF92E8
:1003B0000F931F93CF93DF93DC015C96ED90FC903D
:1003C0005D97E114F10479F481E090E013969C9339
:1003D0008E93129790E080E0DF91CF911F910F9163
:1003E000FF90EF9008955196ED91FC9152975096A1
:1003F0008C915097982F90950FB75E962C915E97A1
:10040000122F127021FD6095F8942081112319F1AB
:10041000282B2083E7012197F1F728E0462F50E0B1
:10042000308160FF1AC0382B3083E7012197F1F744
:10043000BA0175956795215089F7112381F0808164
:10044000892380830FBF5C968D919C910197F1F772
:1004500081E090E0C1CF2923DCCF3923E5CF908123
:10046000892BEFCF20916102309162022817390762
:1004700071F48091600220915F0290E0805C9F4F58
:10048000821B910960E470E00E944306089590E0A9
:1004900080E00895209161023091620228173907A7
:1004A000B9F490915F0280916002981789F0E09111
:1004B0005F02F0E0EA5EFD4F808120915F0230E054
:1004C0002F5F3F4F2F73332720935F0290E00895F3
:1004D0008FEF9FEF089590E080E008951F920F92B4
:1004E0000FB60F9211242F933F938F939F93AF9347
:1004F000BF938091570290915802A0915902B091F8
:100500005A023091560223E0230F2D3758F50196F9
:10051000A11DB11D2093560280935702909358025B
:10052000A0935902B0935A0280915B0290915C02B1
:10053000A0915D02B0915E020196A11DB11D809354
:100540005B0290935C02A0935D02B0935E02BF9148
:10055000AF919F918F913F912F910F900FBE0F9070
:100560001F90189526E8230F0296A11DB11DD2CF2A
:100570001F920F920FB60F9211240BB60F922F936A
:100580003F934F935F936F937F938F939F93AF931B
:10059000BF93EF93FF93E0916102F0916202309775
:1005A00049F0A685B7858585968D91FF16C09C91EB
:1005B0008923B1F4FF91EF91BF91AF919F918F91FA
:1005C0007F916F915F914F913F912F910F900BBE53
:1005D0000F900FBE0F901F9018959C91892351F793
:1005E000A389B4899C918589809589238C93868978
:1005F00097890197F1F7608D718DA685B78555852F
:1006000038E020E0CB010197F1F7822F90E095953B
:100610008795282F4C91452309F02068315091F798
:10062000868D81FD20958091600290E001968F7308
:10063000992730915F02381799F0A0916002B0E0DD
:10064000AA5EBD4F2C9380936002828D938D01979B
:10065000F1F7A389B4898C919589892B8C93AACFC2
:10066000868D8160868FF1CF282F30E0F901EA5D19
:10067000FD4F9491F901E052FE4F449126563E4FB2
:10068000F9012491222309F435C0992311F19150E5
:100690009231F8F4E92FF0E08827EE5AFC4F8F4FA3
:1006A0000C9479068303870364037B037F03690348
:1006B0008A03900394039A039E03A203A803AC0346
:1006C0006903B003B603BA03809180008F778093EB
:1006D0008000E22FF0E0EE0FFF1FE058FE4FA591E3
:1006E000B4918FB7F894EC91611148C040954E23B6
:1006F0004C938FBF0895809180008F7DE8CF8091CB
:100700008000877FE4CF84B58F7784BDE2CF84B546
:100710008F7DFBCF8091B0008F778093B000D9CFD1
:100720008091B0008F7DF9CF809190008F7780937A
:100730009000CFCF809190008F7DF9CF8091900075
:10074000877FF5CF8091A0008F778093A000C1CFE5
:100750008091A0008F7DF9CF8091A000877FF5CF99
:10076000809120018F7780932001B3CF8091200169
:100770008F7DF9CF80912001877FF5CF4E2BB8CFA9
:10078000CF93DF93CDB7DEB7A1970FB6F894DEBF56
:100790000FBECDBF789484B5826084BD84B581607E
:1007A00084BD85B5826085BD85B5816085BD80913C
:1007B0006E00816080936E001092810080918100B4
:1007C00082608093810080918100816080938100AC
:1007D000809180008160809380008091B10084606E
:1007E0008093B1008091B00081608093B0008091CF
:1007F000910082608093910080919100816080934C
:100800009100809190008160809390008091A10080
:1008100082608093A1008091A10081608093A100FB
:100820008091A00081608093A0008091210182606E
:100830008093210180912101816080932101809129
:10084000200181608093200180917A0084608093F0
:100850007A0080917A00826080937A0080917A0099
:10086000816080937A0080917A00806880937A001A
:100870001092C10010927E0210927D0210927C02B2
:1008800010927B0210927A02109279028DE991E027
:100890009093800280937F0280916F0296EF980F71
:1008A000943048F02EEC280F243028F022EC280F4A
:1008B000283008F061C02DEB30E030937A022093AD
:1008C00079022BE931E030937C0220937B022CE209
:1008D00031E030937E0220937D02943050F02EEC74
:1008E000280F243030F022EC280FF0E0E0E0283030
:1008F00010F4E8E6F0E02081943028F032EC380F74
:10090000383008F4D7C031E0232B943048F09EEC07
:10091000980F943028F08E53F0E0E0E0883010F427
:10092000E8E6F0E0208320916F0236EF320F34309A
:1009300008F4C2C08EEC820F843008F4BDC082EC93
:10094000820F883008F4BBC090E080E0909377027B
:1009500080937602343008F0B5C02650330B81E026
:1009600001C0880F2A95EAF78093780280917F0270
:10097000909180020197F1F780917D0290917E0223
:10098000892B49F1E0916102F091620222E0E336A5
:10099000F20709F1309739F0A389B4899C918589D0
:1009A000809589238C93809181028E7F8093810230
:1009B0001092600210925F0283E692E090936202CE
:1009C00080936102E0917602F091770280819091AC
:1009D0007802892B808320E0222E20E0322EC12C49
:1009E000D12C760119A2460157018E010F5D1F4FD0
:1009F000C501B4012AE030E040E050E00E94570613
:100A0000605DF80162938F01FAE08F169104A104F2
:100A1000B10409F46CC00115110569F0F8010190E9
:100A20000020E9F73197AF01401B510BB80183E675
:100A300092E00E946B0142E050E062E172E083E6E6
:100A400092E00E946B010E9498014B015C0182E3DD
:100A5000482E512C612C712C0E949801681979093B
:100A60008A099B09683E734081059105A8F321E03E
:100A7000421A51086108710888EE880E83E0981EBA
:100A8000A11CB11C411451046104710429F7FFEF4A
:100A9000CF1ADF0AEF0AFF0A2BE0C216D104E104E5
:100AA000F10409F09FCF2114310409F498CF0E947A
:100AB000000095CF34E028CF8BE690E047CF8DE65D
:100AC00090E044CF88E0223309F44ECF84E0233312
:100AD00009F44ACF82E0243309F446CF82EC820F36
:100AE000883018F42E53330B3ACF81E03DCF812C60
:100AF000912C540183947CCF0F931F93CF93DF935A
:100B0000109266021092650288EE93E0A0E0B0E0D9
:100B10008093670290936802A0936902B0936A027F
:100B200084E092E0909364028093630210927A02D0
:100B30001092790210927C0210927B0210927E0237
:100B400010927D021092800210927F0260918102C9
:100B50006E7F6D7F609381026695617081E068278A
:100B600083E20E94340343E052E0FA0164918DEB8A
:100B700091E0FC012491222399F030E0220F331FF1
:100B8000F901EA59FE4FA591B491F901E058FE4FE1
:100B9000259134912FB7F8943C91632B6C932FBF20
:100BA000FA01449140937302FC018491E82FF0E034
:100BB000EE0FFF1FE058FE4F8591949190937502C0
:100BC0008093740205E012E0F8012491CFEBD1E0AC
:100BD000FE0184918823C9F090E0880F991FFC01E1
:100BE000EA59FE4FA591B491FC01E058FE4F4591A2
:100BF00054913FB7F8949C91822F809598239C93B1
:100C0000FA019081892380833FBF8091810281FD19
:100C100004C061E085E20E94340385E280936F02A4
:100C2000F801049100937002FE01C491EC2FF0E0F2
:100C3000EE0FFF1FE45BFE4F85919491909372023B
:100C400080937102DF91CF911F910F91089584E0FD
:100C500092E090936402809363028091610290918C
:100C600062028356924071F4E0917602F09177022D
:100C7000908180917802809589238083109262020E
:100C800010926102089597FB072E16F4009407D086
:100C900077FD09D00E94810607FC05D03EF49095AF
:100CA00081959F4F0895709561957F4F0895A1E2BA
:100CB0001A2EAA1BBB1BFD010DC0AA1FBB1FEE1FD6
:100CC000FF1FA217B307E407F50720F0A21BB30B21
:100CD000E40BF50B661F771F881F991F1A9469F79D
:100CE00060957095809590959B01AC01BD01CF01F9
:100CF0000895EE0FFF1F881F8BBF0790F691E02D20
:100D00001994AA1BBB1B51E107C0AA1FBB1FA61742
:100D1000B70710F0A61BB70B881F991F5A95A9F7A4
:100D200080959095BC01CD01089511E0C7E3D1E015
:100D300000E006C0802FFE010E9479062196011D69
:0E0D4000C833D10780E00807A9F7F894FFCF69
:100D4E0000000000D6016B016B02D50132024A028F
:060D5E00BD010D0A0000BA
:00000001FF
