:100000000C945D000C9485000C9485000C94850084
:100010000C9485000C9485000C9485000C9485004C
:100020000C9485000C9485000C9485000C9485003C
:100030000C9485000C9485000C9485000C9485002C
:100040000C9402030C9485000C94D0020C94AA0228
:100050000C9485000C9485000C9485000C9485000C
:100060000C9485000C94850000000008000201003B
:100070000003040700000000000000000000000072
:10008000250028002B0000000000240027002A0083
:10009000040404040404040402020202020203032E
:1000A0000303030301020408102040800102040836
:1000B00010200102040810208E0411241FBECFEF6F
:1000C000D8E0DEBFCDBF11E0A0E0B1E0EAECF9E09E
:1000D00002C005900D92AE32B107D9F721E0AEE231
:1000E000B1E001C01D92A83DB207E1F710E0CDE5F7
:1000F000D0E004C02197FE010E94DD04CC35D10779
:10010000C9F70E944C030C94E3040C940000AF92D6
:10011000BF92CF92DF92EF92FF920F931F93CF93F4
:10012000DF936C017B018B01040F151FEB015E0156
:10013000AE18BF08C017D10759F06991D601ED91EB
:10014000FC910190F081E02DC6010995892B79F78A
:10015000C501DF91CF911F910F91FF90EF90DF903C
:10016000CF90BF90AF900895FC01538D448D252F03
:1001700030E0842F90E0821B930B541710F0CF9641
:10018000089501970895FC01918D828D981761F073
:10019000A28DAE0FBF2FB11D5D968C91928D9F5F8A
:1001A0009F73928F90E008958FEF9FEF0895FC0169
:1001B000918D828D981731F0828DE80FF11D858D1C
:1001C00090E008958FEF9FEF0895FC01918D228DAF
:1001D000892F90E0805C9F4F821B91098F73992734
:1001E00008958BE391E00E94E50021E0892B09F45A
:1001F00020E0822F089580E090E0892B29F00E9472
:10020000F10081110C9400000895FC01A48DA80F49
:10021000B92FB11DA35ABF4F2C91848D90E0019648
:100220008F739927848FA689B7892C93A089B18968
:100230008C91837080648C93938D848D981306C009
:100240000288F389E02D80818F7D80830895EF926D
:10025000FF920F931F93CF93DF93EC0181E0888F80
:100260009B8D8C8D98131AC0E889F989808185FF50
:1002700015C09FB7F894EE89FF896083E889F989F2
:1002800080818370806480839FBF81E090E0DF91F4
:10029000CF911F910F91FF90EF900895F62E0B8D47
:1002A00010E00F5F1F4F0F731127E02E8C8D8E1102
:1002B0000CC00FB607FCFACFE889F989808185FF69
:1002C000F5CFCE010E940501F1CFEB8DEC0FFD2F94
:1002D000F11DE35AFF4FF0829FB7F8940B8FEA8924
:1002E000FB8980818062CFCFCF93DF93EC01888D33
:1002F0008823B9F0AA89BB89E889F9898C9185FDA1
:1003000003C0808186FD0DC00FB607FCF7CF8C912E
:1003100085FFF2CF808185FFEDCFCE010E940501E0
:10032000E9CFDF91CF91089590E0FC01E859FF4FAC
:100330002491FC01EC55FF4F3491FC01E057FF4F35
:10034000E491EE23C9F0222339F0233001F1A8F41F
:10035000213019F1223029F1F0E0EE0FFF1FE458AF
:10036000FF4FA591B4918FB7F894EC91611126C01D
:1003700030953E233C938FBF08952730A9F0283055
:10038000C9F0243049F7809180008F7D03C08091AF
:1003900080008F7780938000DFCF84B58F7784BD16
:1003A000DBCF84B58F7DFBCF8091B0008F778093BA
:1003B000B000D2CF8091B0008F7DF9CF3E2BDACF45
:1003C0003FB7F8948091330190913401A0913501A9
:1003D000B091360126B5A89B05C02F3F19F00196B4
:1003E000A11DB11D3FBFBA2FA92F982F8827BC018F
:1003F000CD01620F711D811D911D42E0660F771FB7
:10040000881F991F4A95D1F708958F929F92AF92B6
:10041000BF92CF92DF92EF92FF926B017C010E941C
:10042000E0014B015C01C114D104E104F104B9F015
:100430000E94E001681979098A099B09683E7340A6
:100440008105910580F321E0C21AD108E108F10885
:1004500088EE880E83E0981EA11CB11CE4CFFF90AB
:10046000EF90DF90CF90BF90AF909F908F900895C6
:10047000FC0101900020E9F73197AF01481B590BAF
:10048000BC018BE391E00C9487008F929F92AF9216
:10049000BF920F931F93CF93DF93CDB7DEB7A19792
:1004A0000FB6F894DEBF0FBECDBF19A2423008F4DC
:1004B0004AE08E010F5D1F4F842E912CB12CA12C90
:1004C000A50194010E94BB04E62FB901CA01EA30DC
:1004D000F4F4E05DD801EE938D01232B242B252B22
:1004E00079F790E080E0109719F0CD010E94380272
:1004F000A1960FB6F894DEBF0FBECDBFDF91CF91AE
:100500001F910F91BF90AF909F908F900895E95CDD
:10051000E1CFCF92DF92EF92FF92CF93DF936B0107
:100520007C016DE28BE391E00E942701EC016627DC
:100530007727CB016C197D098E099F094AE00E943B
:1005400045028C0F9D1FDF91CF91FF90EF90DF90C0
:10055000CF9008951F920F920FB60F9211242F93F0
:100560003F934F935F936F937F938F939F93AF933B
:10057000BF93EF93FF938BE391E00E940501FF91FE
:10058000EF91BF91AF919F918F917F916F915F910B
:100590004F913F912F910F900FBE0F901F90189584
:1005A0001F920F920FB60F9211242F938F939F9348
:1005B000EF93FF93E0914B01F0914C018081E0912A
:1005C0005101F091520182FD1BC090818091540134
:1005D0008F5F8F7320915501821741F0E091540194
:1005E000F0E0E55CFE4F958F80935401FF91EF9111
:1005F0009F918F912F910F900FBE0F901F90189584
:100600008081F4CF1F920F920FB60F9211242F9377
:100610003F938F939F93AF93BF9380912F019091BE
:100620003001A0913101B091320130912E0123E0CF
:10063000230F2D3758F50196A11DB11D20932E01D2
:1006400080932F0190933001A0933101B093320138
:100650008091330190913401A0913501B091360120
:100660000196A11DB11D8093330190933401A09395
:100670003501B0933601BF91AF919F918F913F911A
:100680002F910F900FBE0F901F90189526E8230F03
:100690000296A11DB11DD2CF789484B5826084BD2D
:1006A00084B5816084BD85B5826085BD85B5816076
:1006B00085BD80916E00816080936E0010928100F4
:1006C00080918100826080938100809181008160AF
:1006D0008093810080918000816080938000809170
:1006E000B10084608093B1008091B00081608093FC
:1006F000B00080917A00846080937A0080917A00C3
:10070000826080937A0080917A00816080937A0081
:1007100080917A00806880937A001092C100E6EAA6
:10072000F0E02491E2E9F0E08491882399F090E0F0
:10073000880F991FFC01EA57FF4FA591B491FC0166
:10074000E458FF4F859194918FB7F894EC91E22B88
:10075000EC938FBFE2EBF0E02491EEE9F0E08491BE
:100760008823C1F090E0880F991FFC01EA57FF4FE2
:10077000C591D491FC01E458FF4FA591B4919FB766
:10078000F8948881E22FE0958E2388838C91E8236A
:10079000EC939FBFE0914B01F0914C0182E080838C
:1007A000E0914701F09148011082E0914901F091F8
:1007B0004A018FEC808310925301E0914F01F09138
:1007C000500186E08083E0914D01F0914E018081DF
:1007D00080618083E0914D01F0914E0180818860BD
:1007E0008083E0914D01F0914E018081806880838B
:1007F000E0914D01F0914E0180818F7D808380E4F6
:10080000F82E95E0E92EC8EED3E000E010E0F0927B
:100810007C0080917A00806480937A0080917A00D5
:1008200086FDFCCF909178008091790089279827E8
:10083000892790933A018093390182E191E00E94E7
:1008400038026091390170913A01072E000C880B33
:10085000990B97FF5BC00E94890282E291E00E949F
:1008600038022091390130913A01E29EC001E39EA5
:10087000900D112497FF02C081509C4F892F880F43
:10088000880B95959595909337018093380185E273
:1008900091E00E9438026091370170913801072E73
:1008A000000C880B990B97FF35C00E94890282E2E9
:1008B00091E00E94380261E082E00E949401809100
:1008C0003701909138018C9F40018D9F900C9C9F27
:1008D000900C1124092C000CAA08BB08C501B40116
:1008E0000E94050260E082E00E949401C501B4010B
:1008F0000E9405020115110509F489CF0E94F1003B
:10090000882309F484CF0E94000081CF4AE00E942E
:100910004502A3CF4AE00E944502C9CFEBE3F1E0D4
:100920001382128288EE93E0A0E0B0E08483958386
:10093000A683B78384E091E09183808385EC90E087
:100940009587848784EC90E09787868780EC90E099
:10095000918B808B81EC90E0938B828B82EC90E08A
:10096000958B848B86EC90E0978B868B118E128E04
:10097000138E148E0895A1E21A2EAA1BBB1BFD0133
:100980000DC0AA1FBB1FEE1FFF1FA217B307E4076E
:10099000F50720F0A21BB30BE40BF50B661F771FC6
:1009A000881F991F1A9469F76095709580959095A6
:1009B0009B01AC01BD01CF010895EE0FFF1F059013
:0A09C000F491E02D0994F894FFCFA4
:1009CA000000000027018700B4007401E500C3009D
:1009DA00D700506F74656E63696F6D6574726F3A94
:0E09EA0020000D0A0044656C61793A2000007F
:00000001FF
