:020000040000FA
:100000000C945D000C9485000C9485000C94850084
:100010000C9485000C9485000C9485000C9485004C
:100020000C9485000C9485000C9485000C9485003C
:100030000C9485000C9485000C9485000C9485002C
:100040000C9410040C9485000C94DE030C94B803FB
:100050000C9485000C9485000C9485000C9485000C
:100060000C9485000C9485000000000024002700FB
:100070002A0000000000250028002B0004040404CE
:100080000404040402020202020203030303030342
:10009000010204081020408001020408102001021F
:1000A00004081020000000080002010000030407FB
:1000B00000000000000000005A0411241FBECFEF12
:1000C000D8E0DEBFCDBF11E0A0E0B1E0E8EEFBE09C
:1000D00002C005900D92AA32B107D9F721E0AAE239
:1000E000B1E001C01D92AA3EB207E1F710E0CDE5F4
:1000F000D0E004C02197FE010E94EC05CC35D10769
:10010000C9F70E94A4040C94F2050C940000AF926D
:10011000BF92CF92DF92EF92FF920F931F93CF93F4
:10012000DF936C017B018B01040F151FEB015E0156
:10013000AE18BF08C017D10759F06991D601ED91EB
:10014000FC910190F081E02DC6010995892B79F78A
:10015000C501DF91CF911F910F91FF90EF90DF903C
:10016000CF90BF90AF900895FC01538D448D252F03
:1001700030E0842F90E0821B930B541710F0CF9641
:10018000089501970895FC01918D828D981761F073
:10019000A28DAE0FBF2FB11D5D968C91928D9F5F8A
:1001A0009F73928F90E008958FEF9FEF0895FC0169
:1001B000918D828D981731F0828DE80FF11D858D1C
:1001C00090E008958FEF9FEF0895FC01918D228DAF
:1001D000892F90E0805C9F4F821B91098F73992734
:1001E000089585E391E00E94E50021E0892B09F460
:1001F00020E0822F089580E090E0892B29F00E9472
:10020000F10081110C9400000895FC01A48DA80F49
:10021000B92FB11DA35ABF4F2C91848D90E0019648
:100220008F739927848FA689B7892C93A089B18968
:100230008C91837080648C93938D848D981306C009
:100240000288F389E02D80818F7D80830895EF926D
:10025000FF920F931F93CF93DF93EC0181E0888F80
:100260009B8D8C8D98131AC0E889F989808185FF50
:1002700015C09FB7F894EE89FF896083E889F989F2
:1002800080818370806480839FBF81E090E0DF91F4
:10029000CF911F910F91FF90EF900895F62E0B8D47
:1002A00010E00F5F1F4F0F731127E02E8C8D8E1102
:1002B0000CC00FB607FCFACFE889F989808185FF69
:1002C000F5CFCE010E940501F1CFEB8DEC0FFD2F94
:1002D000F11DE35AFF4FF0829FB7F8940B8FEA8924
:1002E000FB8980818062CFCFCF93DF93EC01888D33
:1002F0008823B9F0AA89BB89E889F9898C9185FDA1
:1003000003C0808186FD0DC00FB607FCF7CF8C912E
:1003100085FFF2CF808185FFEDCFCE010E940501E0
:10032000E9CFDF91CF91089590E0FC01EC55FF4FAC
:100330002491FC01E057FF4F3491FC01E458FF4F3A
:10034000E491EE23C9F0222339F0233001F1A8F41F
:10035000213019F1223029F1F0E0EE0FFF1FEE58A5
:10036000FF4FA591B4918FB7F894EC91611126C01D
:1003700030953E233C938FBF08952730A9F0283055
:10038000C9F0243049F7809180008F7D03C08091AF
:1003900080008F7780938000DFCF84B58F7784BD16
:1003A000DBCF84B58F7DFBCF8091B0008F778093BA
:1003B000B000D2CF8091B0008F7DF9CF3E2BDACF45
:1003C000CF93DF9390E0FC01E057FF4F24918458D6
:1003D0009F4FFC0184918823D1F090E0880F991FF2
:1003E000FC01E859FF4FA591B491FC01EE58FF4F75
:1003F000C591D49161110EC09FB7F8948C91E22FF2
:10040000E0958E238C932881E223E8839FBFDF91C0
:10041000CF9108958FB7F894EC91E22BEC938FBFB6
:10042000F6CF089590E080E00895CF93DF93EC013C
:1004300060E08E810E94940161E08E810E949401AF
:1004400060E08E810E9494018BE891E00197F1F7C2
:10045000DF91CF910895CF92DF92EF92FF920F93A9
:100460001F93CF93DF936C017C0187E0E80EF11CB2
:10047000D0E0C0E0062F10E0B8010C2E02C0759548
:1004800067950A94E2F76170F70181917F010E94FC
:1004900094012196C430D10579F7C601DF91CF913F
:1004A0001F910F91FF90EF90DF90CF900C94150269
:1004B000CF92DF92EF92FF920F931F93CF93DF9330
:1004C000EC01F62E642F8C810E9494018D818F3F68
:1004D00019F060E00E9494010F2D10E08F8584FFD9
:1004E00025C06E0187E0C80ED11CF12CE12CB801AB
:1004F0000E2C02C0759567950A94E2F76170F601BB
:1005000081916F010E949401FFEFEF1AFF0A88E0CA
:10051000E816F10461F7CE01DF91CF911F910F91A1
:10052000FF90EF90DF90CF900C941502B80184E01B
:10053000759567958A95E1F7CE010E942B026F2D84
:10054000CE01DF91CF911F910F91FF90EF90DF903F
:10055000CF900C942B0240E0682F82ED91E00C9438
:100560005802CF93DF93823029F49091E101986093
:100570009093E1018093E5011092E60180E480937D
:10058000E70180E18093E80180E58093E90161E083
:100590008091D6010E94E0018091D7018F3F19F030
:1005A00061E00E94E00161E08091D8010E94E001D9
:1005B000C2EDD1E09E01225D31408091E10184FDD8
:1005C0000BC084E090E021962817390744F461E0DD
:1005D0008E810E94E001EECF88E090E0F4CF8BE3C3
:1005E0009DE00197F1F760E08091D6010E949401AF
:1005F00060E08091D8010E9494018091D7018F3FE3
:1006000019F060E00E9494018091E10184FD39C0FD
:1006100063E082ED91E00E942B02CBE4D6E4CE01B0
:100620000197F1F763E082ED91E00E942B022197A0
:10063000F1F763E082ED91E00E942B0283E592E006
:100640000197F1F762E082ED91E00E942B02809128
:10065000E10180620E94AB0284E08093E2018CE0C1
:100660000E94AB0281E00E94AB028BE39FE1019705
:10067000F1F782E08093E30186E0DF91CF910C9463
:10068000AB0280620E94AB028BE496E40197F1F723
:100690008091E10180620E94AB0283E592E00197C4
:1006A000F1F78091E10180620E94AB02D0CF41E07E
:1006B0000E94580281E090E00895FB010190002023
:1006C000E9F73197AF01461B570BDC01ED91FC9127
:1006D0000280F381E02D09948F929F92AF92BF9296
:1006E000EF92FF920F931F93CF93DF93CDB7DEB7B7
:1006F000A1970FB6F894DEBF0FBECDBF7C01FA0103
:10070000CB0119A2223008F42AE08E010F5D1F4FA1
:10071000822E912CB12CA12CBF01A50194010E9425
:10072000CA05F901CA016A300CF5605DD8016E9303
:100730008D01232B242B252B79F790E080E0109757
:1007400021F0BD01C7010E945D03A1960FB6F89488
:10075000DEBF0FBECDBFDF91CF911F910F91FF90F4
:10076000EF90BF90AF909F908F900895695CDECF1F
:100770001F920F920FB60F9211242F933F934F9316
:100780005F936F937F938F939F93AF93BF93EF93F9
:10079000FF9385E391E00E940501FF91EF91BF91E6
:1007A000AF919F918F917F916F915F914F913F9109
:1007B0002F910F900FBE0F901F9018951F920F92C0
:1007C0000FB60F9211242F938F939F93EF93FF9364
:1007D000E0914501F09146018081E0914B01F0915B
:1007E0004C0182FD1BC0908180914E018F5F8F7301
:1007F00020914F01821741F0E0914E01F0E0EB5C57
:10080000FE4F958F80934E01FF91EF919F918F91B5
:100810002F910F900FBE0F901F9018958081F4CFED
:100820001F920F920FB60F9211242F933F938F9325
:100830009F93AF93BF9380912F0190913001A0912E
:100840003101B091320130912E0123E0230F2D3779
:1008500058F50196A11DB11D20932E0180932F0103
:1008600090933001A0933101B093320180912A011D
:1008700090912B01A0912C01B0912D010196A11D09
:10088000B11D80932A0190932B01A0932C01B0936A
:100890002D01BF91AF919F918F913F912F910F901B
:1008A0000FBE0F901F90189526E8230F0296A11DEA
:1008B000B11DD2CFE5E3F1E01382128288EE93E01E
:1008C000A0E0B0E084839583A683B78384E091E0C1
:1008D0009183808385EC90E09587848784EC90E019
:1008E0009787868780EC90E0918B808B81EC90E0FD
:1008F000938B828B82EC90E0958B848B86EC90E0DE
:10090000978B868B118E128E138E148EE2EDF1E092
:100910001382128286E191E0918380838CE084834C
:100920008FEF85838BE0868385E0878384E08087F3
:1009300083E0818782E08287138614861586168677
:10094000178681E00C94B102789484B5826084BDEE
:1009500084B5816084BD85B5826085BD85B58160C3
:1009600085BD80916E00816080936E001092810041
:1009700080918100826080938100809181008160FC
:1009800080938100809180008160809380008091BD
:10099000B10084608093B1008091B0008160809349
:1009A000B00080917A00846080937A0080917A0010
:1009B000826080937A0080917A00816080937A00CF
:1009C00080917A00806880937A001092C10082E062
:1009D0000E94B10261E086E00E94E00160E08EE0EA
:1009E0000E94E001E0914501F091460182E08083A0
:1009F000E0914101F09142011082E0914301F091B8
:100A000044018FEC808310924D01E0914901F091F7
:100A10004A0186E08083E0914701F091480180819E
:100A200080618083E0914701F09148018081886076
:100A30008083E0914701F091480180818068808344
:100A4000E0914701F091480180818F7D808310E41F
:100A5000C0E0D0E0E1E08091E5018111E0E0E195C6
:100A6000F0E0EE52FE4F848980680E94AB02109342
:100A70007C0080917A00806480937A0080917A0073
:100A800086FDFCCF90917800809179008927982786
:100A9000892790933401809333016C01092E000C57
:100AA000EE08FF082AE0B701A60197FF0EC041E05B
:100AB0006DE282ED91E00E94580244275527BA0169
:100AC0004C195D096E097F092AE082ED91E00E94D0
:100AD0006C036EE171E082ED91E00E945D03C090D5
:100AE0003301D09034010D2C000CEE08FF082AE0F1
:100AF000B701A601F7FE0DC06DE285E391E00E940B
:100B0000270144275527BA014C195D096E097F0951
:100B10002AE085E391E00E946C036EE171E085E3D9
:100B200091E00E945D03E091E501E23050F5E15073
:100B3000F0E0EE52FE4F848980680E94AB02809103
:100B400033019091340189359240ECF061E086E008
:100B50000E94940161E271E082ED91E00E945D03E8
:100B60006EE171E082ED91E00E945D03209709F44F
:100B700071CF0E94F100882309F46CCF0E9400001D
:100B800069CFE1E0D5CF60E086E00E94940165E2A4
:100B900071E0E2CFA1E21A2EAA1BBB1BFD010DC022
:100BA000AA1FBB1FEE1FFF1FA217B307E407F5071D
:100BB00020F0A21BB30BE40BF50B661F771F881FF9
:100BC000991F1A9469F760957095809590959B018F
:100BD000AC01BD01CF010895EE0FFF1F0590F49108
:100BE000E02D0994F894FFCF000000002701870052
:100BF000B4007401E500C300D700000000005703F3
:100C00008700120211020D0A004F4E20004F464687
:020C10000000E2
:107E0000112484B714BE81FFF0D085E080938100F7
:107E100082E08093C00088E18093C10086E0809377
:107E2000C20080E18093C4008EE0C9D0259A86E02C
:107E300020E33CEF91E0309385002093840096BBD3
:107E4000B09BFECF1D9AA8958150A9F7CC24DD24C4
:107E500088248394B5E0AB2EA1E19A2EF3E0BF2EE7
:107E6000A2D0813461F49FD0082FAFD0023811F036
:107E7000013811F484E001C083E08DD089C08234E0
:107E800011F484E103C0853419F485E0A6D080C0E4
:107E9000853579F488D0E82EFF2485D0082F10E0AE
:107EA000102F00270E291F29000F111F8ED06801E7
:107EB0006FC0863521F484E090D080E0DECF843638
:107EC00009F040C070D06FD0082F6DD080E0C81688
:107ED00080E7D80618F4F601B7BEE895C0E0D1E017
:107EE00062D089930C17E1F7F0E0CF16F0E7DF06D8
:107EF00018F0F601B7BEE89568D007B600FCFDCFD4
:107F0000A601A0E0B1E02C9130E011968C91119780
:107F100090E0982F8827822B932B1296FA010C0160
:107F200087BEE89511244E5F5F4FF1E0A038BF0790
:107F300051F7F601A7BEE89507B600FCFDCF97BE46
:107F4000E89526C08437B1F42ED02DD0F82E2BD052
:107F50003CD0F601EF2C8F010F5F1F4F84911BD097
:107F6000EA94F801C1F70894C11CD11CFA94CF0C13
:107F7000D11C0EC0853739F428D08EE10CD085E9AC
:107F80000AD08FE07ACF813511F488E018D01DD067
:107F900080E101D065CF982F8091C00085FFFCCF94
:107FA0009093C60008958091C00087FFFCCF809118
:107FB000C00084FD01C0A8958091C6000895E0E648
:107FC000F0E098E1908380830895EDDF803219F02E
:107FD00088E0F5DFFFCF84E1DECF1F93182FE3DFCA
:107FE0001150E9F7F2DF1F91089580E0E8DFEE27F6
:047FF000FF270994CA
:027FFE00040479
:00000001FF
