:020000040000FA
:100000000C9463000C948B000C948B000C94B50141
:100010000C94B5010C94B5010C948B000C948B00DE
:100020000C948B000C948B000C948B000C948B0024
:100030000C948B000C948B000C948B000C948B0014
:100040000C946B010C948B000C948B000C948B0023
:100050000C948B000C948B000C948B000C948B00F4
:100060000C948B000C948B000000000023002600F1
:10007000290000000000240027002A0000000000E2
:10008000250028002B0004040404040404040202D4
:100090000202020203030303030301020408102007
:1000A0004080010204081020010204081020000012
:1000B0000008000201000003040700000000000027
:1000C00000006D03180411241FBECFEFD8E0DEBF7F
:1000D000CDBF11E0A0E0B1E0EEEDF8E002C0059088
:1000E0000D92A832B107D9F721E0A8E2B1E001C032
:1000F0001D92A439B207E1F710E0C2E6D0E004C0D7
:100100002197FE010E945C04C136D107C9F70E9405
:1001100079020C9462040C940000AF92BF92CF92CB
:10012000DF92EF92FF920F931F93CF93DF936C01B7
:100130007B018B01040F151FEB015E01AE18BF0898
:10014000C017D10759F06991D601ED91FC9101904A
:10015000F081E02DC6010995892B79F7C501DF9162
:10016000CF911F910F91FF90EF90DF90CF90BF90B4
:10017000AF90089520916A0130916B0128173907DB
:1001800071F49091680180916901981741F0E091B4
:100190006801F0E0E85DFE4F808190E008958FEF08
:1001A0009FEF08950895EF92FF920F931F93CF93BF
:1001B000DF93DC015C96ED90FC905D97E114F10417
:1001C00079F481E090E013969C938E93129790E0DF
:1001D00080E0DF91CF911F910F91FF90EF900895F4
:1001E0005196ED91FC91529750968C915097982F83
:1001F00090950FB75E962C915E97122F127021FD8D
:100200006095F8942081112319F1282B2083E701B0
:100210002197F1F728E0462F50E0308160FF1AC0A7
:10022000382B3083E7012197F1F7BA01759567956F
:10023000215089F7112381F08081892380830FBFAA
:100240005C968D919C910197F1F781E090E0C1CF90
:100250002923DCCF3923E5CF9081892BEFCF209163
:100260006A0130916B012817390771F48091690197
:100270002091680190E0805C9F4F821B910960E4AF
:1002800070E00E943404089590E080E00895209189
:100290006A0130916B0128173907B9F49091680110
:1002A00080916901981789F0E0916801F0E0E85DBC
:1002B000FE4F80812091680130E02F5F3F4F2F7308
:1002C00033272093680190E008958FEF9FEF089502
:1002D00090E080E008951F920F920FB60F921124C4
:1002E0002F933F938F939F93AF93BF9380919001F0
:1002F00090919101A0919201B091930130918F0161
:1003000023E0230F2D3758F50196A11DB11D209331
:100310008F018093900190939101A0939201B093EB
:10032000930180918B0190918C01A0918D01B091EE
:100330008E010196A11DB11D80938B0190938C01BC
:10034000A0938D01B0938E01BF91AF919F918F913A
:100350003F912F910F900FBE0F901F90189526E898
:10036000230F0296A11DB11DD2CF1F920F920FB67F
:100370000F9211242F933F934F935F936F937F932B
:100380008F939F93AF93BF93EF93FF93E0916A0195
:10039000F0916B01309749F0A685B7858585968DDC
:1003A00091FF14C09C918923A1F4FF91EF91BF911B
:1003B000AF919F918F917F916F915F914F913F91FD
:1003C0002F910F900FBE0F901F9018959C9189232D
:1003D00061F7A389B4899C918589809589238C9341
:1003E000868997890197F1F7608D718DA685B7850C
:1003F000558538E020E0CB010197F1F7822F90E09E
:1004000095958795282F4C91452309F02068315008
:1004100091F7868D81FD20958091690190E001968C
:100420008F73992730916801381799F0A09169016D
:10043000B0E0A85DBE4F2C9380936901828D938DAF
:100440000197F1F7A389B4898C919589892B8C93B5
:10045000ACCF868D8160868FF1CF90E0FC01E255B4
:10046000FF4F2491FC01E656FF4F3491FC01EA57FF
:10047000FF4FE491EE23C9F0222339F0233001F13C
:10048000A8F4213019F1223029F1F0E0EE0FFF1F1E
:10049000E458FF4FA591B4918FB7F894EC91611196
:1004A00026C030953E233C938FBF08952730A9F096
:1004B0002830C9F0243049F7809180008F7D03C037
:1004C000809180008F7780938000DFCF84B58F7715
:1004D00084BDDBCF84B58F7DFBCF8091B0008F775B
:1004E0008093B000D2CF8091B0008F7DF9CF3E2BAA
:1004F000DACF789484B5826084BD84B5816084BD90
:1005000085B5826085BD85B5816085BD80916E00B1
:10051000816080936E0010928100809181008260E2
:10052000809381008091810081608093810080911F
:1005300080008160809380008091B100846080930E
:10054000B1008091B00081608093B00080917A000A
:10055000846080937A0080917A00826080937A0030
:1005600080917A00816080937A0080917A0080681F
:1005700080937A001092C100109287011092860138
:1005800010928501109284011092830110928201D1
:100590008DE991E090938901809388019091780191
:1005A000963108F047C02DEB30E030938301209363
:1005B00082012BE931E030938501209384012CE204
:1005C00031E030938701209386012091680084E018
:1005D000983048F031E09E3008F430E081E001C00E
:1005E000880F3A95EAF7822B809368002DE630E079
:1005F000983050F02BE630E09E3030F02CE630E0C2
:10060000963110F030E020E03093800120937F019C
:10061000292F30E0983008F053C081E001C0880FE6
:100620009A95EAF7809381018091880190918901E0
:100630000197F1F78091860190918701892B49F10B
:10064000E0916A01F0916B0181E0EC36F80709F165
:10065000309739F0A389B4899C9185898095892345
:100660008C9380918A018E7F80938A011092690118
:10067000109268018CE691E090936B0180936A017F
:10068000E0917F01F0918001808190918101892B1F
:10069000808341E150E062E171E08CE691E00E94EC
:1006A0008D0042E050E064E271E08CE691E00E944F
:1006B0008D00C0E0D0E02097F1F30E940000FBCF56
:1006C0009E3040F42850310981E001C0880F2A95FE
:1006D000EAF7A8CF2E503109F7CF0F931F93CF938E
:1006E000DF9310926F0110926E0188EE93E0A0E00C
:1006F000B0E08093700190937101A0937201B09368
:10070000730184E091E090936D0180936C011092ED
:10071000830110928201109285011092840110923F
:1007200087011092860110928901109288016091D0
:100730008A016E7F6D7F60938A016695617081E0AA
:10074000682783E00E942D024DE950E0FA01649190
:1007500089E890E0FC012491222399F030E0220FF7
:10076000331FF901EE58FF4FA591B491F901E458F8
:10077000FF4F259134912FB7F8943C91632B6C93E4
:100780002FBFFA01449140937C01FC018491E82F32
:10079000F0E0EE0FFF1FE458FF4F85919491909386
:1007A0007E0180937D010CE910E0F8012491C8E8F6
:1007B000D0E0FE0184918823C9F090E0880F991F52
:1007C000FC01EE58FF4FA591B491FC01E458FF4F96
:1007D000459154913FB7F8949C91822F809598232E
:1007E0009C93FA019081892380833FBF80918A0185
:1007F00081FD04C061E082E00E942D0282E08093CE
:100800007801F801049100937901FE01C491EC2F65
:10081000F0E0EE0FFF1FE859FF4F85919491909300
:100820007B0180937A01DF91CF911F910F91089501
:1008300084E091E090936D0180936C0180916A0156
:1008400090916B018C56914071F4E0917F01F09191
:10085000800190818091810180958923808310920D
:100860006B0110926A01089597FB072E16F400940D
:1008700007D077FD09D00E94480407FC05D03EF45C
:10088000909581959F4F0895709561957F4F08953C
:10089000AA1BBB1B51E107C0AA1FBB1FA617B707A6
:1008A00010F0A61BB70B881F991F5A95A9F78095C2
:1008B0009095BC01CD010895EE0FFF1F0590F491B6
:1008C000E02D099410E0C2E6D0E004C0FE010E94D1
:1008D0005C042196C336D107C9F7F894FFCF000016
:1008E0000000D3008D006801D2002F014701BA003B
:1008F00052414D532050726F6772616D6163696F31
:060900006E000D0A00006C
:107E0000112484B714BE81FFF0D085E080938100F7
:107E100082E08093C00088E18093C10086E0809377
:107E2000C20080E18093C4008EE0C9D0259A86E02C
:107E300020E33CEF91E0309385002093840096BBD3
:107E4000B09BFECF1D9AA8958150A9F7CC24DD24C4
:107E500088248394B5E0AB2EA1E19A2EF3E0BF2EE7
:107E6000A2D0813461F49FD0082FAFD0023811F036
:107E7000013811F484E001C083E08DD089C08234E0
:107E800011F484E103C0853419F485E0A6D080C0E4
:107E9000853579F488D0E82EFF2485D0082F10E0AE
:107EA000102F00270E291F29000F111F8ED06801E7
:107EB0006FC0863521F484E090D080E0DECF843638
:107EC00009F040C070D06FD0082F6DD080E0C81688
:107ED00080E7D80618F4F601B7BEE895C0E0D1E017
:107EE00062D089930C17E1F7F0E0CF16F0E7DF06D8
:107EF00018F0F601B7BEE89568D007B600FCFDCFD4
:107F0000A601A0E0B1E02C9130E011968C91119780
:107F100090E0982F8827822B932B1296FA010C0160
:107F200087BEE89511244E5F5F4FF1E0A038BF0790
:107F300051F7F601A7BEE89507B600FCFDCF97BE46
:107F4000E89526C08437B1F42ED02DD0F82E2BD052
:107F50003CD0F601EF2C8F010F5F1F4F84911BD097
:107F6000EA94F801C1F70894C11CD11CFA94CF0C13
:107F7000D11C0EC0853739F428D08EE10CD085E9AC
:107F80000AD08FE07ACF813511F488E018D01DD067
:107F900080E101D065CF982F8091C00085FFFCCF94
:107FA0009093C60008958091C00087FFFCCF809118
:107FB000C00084FD01C0A8958091C6000895E0E648
:107FC000F0E098E1908380830895EDDF803219F02E
:107FD00088E0F5DFFFCF84E1DECF1F93182FE3DFCA
:107FE0001150E9F7F2DF1F91089580E0E8DFEE27F6
:047FF000FF270994CA
:027FFE00040479
:00000001FF
