:020000040000FA
:100000000C945D000C9485000C9485000C94850084
:100010000C9485000C9485000C9485000C9485004C
:100020000C9485000C9485000C9485000C9485003C
:100030000C9485000C9485000C9485000C9485002C
:100040000C94A9030C9485000C9477030C94510331
:100050000C9485000C9485000C9485000C9485000C
:100060000C94F3030C9485000000000800020100CA
:100070000003040700000000000000000000000072
:10008000250028002B0000000000240027002A0083
:10009000040404040404040402020202020203032E
:1000A0000303030301020408102040800102040836
:1000B0001020010204081020120511241FBECFEFEA
:1000C000D8E0DEBFCDBF11E0A0E0B1E0E0EFFDE0A1
:1000D00002C005900D92A832B107D9F722E0A8E23C
:1000E000B1E001C01D92A837B207E1F710E0CDE5FD
:1000F000D0E004C02197FE010E94F006CC35D10764
:10010000C9F70E944B050C94F6060C940000089564
:10011000CF93DF93AC01E091C901F091CA01309710
:10012000F1F09091C8018091C7019817C0F090E05C
:10013000292F30E02617370754F4D901A85DBE4FA8
:10014000240F351FE90128812C939F5FF1CF109276
:10015000C8016093C701CB01DF91CF910994DF9172
:10016000CF910895AF92BF92CF92DF92EF92FF921C
:100170000F931F93CF93DF936C017B018B01040FCF
:10018000151FEB015E01AE18BF08C017D10759F06B
:100190006991D601ED91FC910190F081E02DC601AD
:1001A0000995892B79F7C501DF91CF911F910F91A7
:1001B000FF90EF90DF90CF90BF90AF900895FC013B
:1001C000538D448D252F30E0842F90E0821B930BBC
:1001D000541710F0CF96089501970895FC01918D62
:1001E000828D981761F0A28DAE0FBF2FB11D5D9665
:1001F0008C91928D9F5F9F73928F90E008958FEF07
:100200009FEF0895FC01918D828D981731F0828DBA
:10021000E80FF11D858D90E008958FEF9FEF089511
:10022000FC01918D228D892F90E0805C9F4F821B75
:1002300091098F73992708958FEC91E00E94100126
:1002400021E0892B09F420E0822F089580E090E0DE
:10025000892B29F00E941C0181110C940000089543
:10026000FC01A48DA80FB92FB11DA35ABF4F2C912B
:10027000848D90E001968F739927848FA689B78922
:100280002C93A089B1898C91837080648C93938D19
:10029000848D981306C00288F389E02D80818F7DBC
:1002A00080830895EF92FF920F931F93CF93DF9374
:1002B000EC0181E0888F9B8D8C8D98131AC0E889A2
:1002C000F989808185FF15C09FB7F894EE89FF8971
:1002D0006083E889F98980818370806480839FBF0F
:1002E00081E090E0DF91CF911F910F91FF90EF900F
:1002F0000895F62E0B8D10E00F5F1F4F0F7311271F
:10030000E02E8C8D8E110CC00FB607FCFACFE88959
:10031000F989808185FFF5CFCE010E943001F1CFB0
:10032000EB8DEC0FFD2FF11DE35AFF4FF0829FB7CD
:10033000F8940B8FEA89FB8980818062CFCFCF93BD
:10034000DF93EC01888D8823B9F0AA89BB89E889FD
:10035000F9898C9185FD03C0808186FD0DC00FB6A3
:1003600007FCF7CF8C9185FFF2CF808185FFEDCF21
:10037000CE010E943001E9CFDF91CF91089590E046
:10038000FC01E859FF4F2491FC01EC55FF4F3491DB
:10039000FC01E057FF4FE491EE23C9F0222339F02E
:1003A000233001F1A8F4213019F1223029F1F0E0D5
:1003B000EE0FFF1FE458FF4FA591B4918FB7F8944B
:1003C000EC91611126C030953E233C938FBF089578
:1003D0002730A9F02830C9F0243049F780918000F7
:1003E0008F7D03C0809180008F7780938000DFCF66
:1003F00084B58F7784BDDBCF84B58F7DFBCF8091B3
:10040000B0008F778093B000D2CF8091B0008F7D05
:10041000F9CF3E2BDACF3FB7F8948091BD01909190
:10042000BE01A091BF01B091C00126B5A89B05C037
:100430002F3F19F00196A11DB11D3FBFBA2FA92F63
:10044000982F8827BC01CD01620F711D811D911D60
:1004500042E0660F771F881F991F4A95D1F70895CC
:100460008F929F92AF92BF92CF92DF92EF92FF92C4
:100470006B017C010E940B024B015C01C114D10491
:10048000E104F104B9F00E940B02681979098A09A4
:100490009B09683E73408105910580F321E0C21AF3
:1004A000D108E108F10888EE880E83E0981EA11CAF
:1004B000B11CE4CFFF90EF90DF90CF90BF90AF9052
:1004C0009F908F90089520916E01260F3327331F40
:1004D00021323105ECF420919201FC0190E080E0A2
:1004E000243069F082E00895A0916E012191AC0161
:1004F000425B5E4FA40FB52FB11D2C93019686175A
:1005000098F380916E01680F60936E0180E008950A
:1005100081E008951092920181E0809394011092FD
:10052000930161E082E10E94BF0161E083E10E94EA
:10053000BF01E9EBF0E080818E7F808380818D7F39
:10054000808388E48093B80085E48093BC0008959C
:100550000895E091C8018091C701E81730F4F0E0F8
:10056000E85DFE4F808190E008958FEF9FEF089542
:100570009091C8018091C7012FEF3FEF981748F481
:10058000E92FF0E0E85DFE4F208130E09F5F90931F
:10059000C801C90108958CE692E00E94B8029093C8
:1005A000CE018093CD0108958091C7019091C8013B
:1005B000891B990B0895CF93DF93CB01EA01642F38
:1005C0000E946302CE01DF91CF910895CF93DF9314
:1005D0001F92CDB7DEB7698361E0CE0101960E941C
:1005E000630281E090E00F90DF91CF91089590E059
:1005F00080E00895CF93DF9385ED8093BC008091D8
:100600004A0190914B01A0914C01B0914D01079688
:10061000A11DB11D23E0B695A795979587952A95BD
:10062000D1F72091BC0024FD03C01092920136C086
:1006300040914A0150914B0160914C0170914D01E4
:10064000452B462B472B69F30097A105B10541F0D7
:1006500025E32A95F1F700000197A109B109E1CF3F
:100660008091490191E0909348018823B9F0C091AD
:10067000B800D091BA008091BC008A7B8093BC0006
:1006800060E082E10E94BF0160E083E10E94BF015F
:100690000E948A02D093BA00C093B800DF91CF9134
:1006A00008951F920F920FB60F9211242F933F932C
:1006B0004F935F936F937F938F939F93AF93BF936A
:1006C000EF93FF938FEC91E00E943001FF91EF9147
:1006D000BF91AF919F918F917F916F915F914F915A
:1006E0003F912F910F900FBE0F901F9018951F9262
:1006F0000F920FB60F9211242F938F939F93EF9326
:10070000FF93E091DF01F091E0018081E091E5014C
:10071000F091E60182FD1BC090818091E8018F5F1E
:100720008F732091E901821741F0E091E801F0E038
:10073000E153FE4F958F8093E801FF91EF919F91D8
:100740008F912F910F900FBE0F901F901895808161
:10075000F4CF1F920F920FB60F9211242F933F9355
:100760008F939F93AF93BF938091B9019091BA01FA
:10077000A091BB01B091BC013091B80123E0230FDF
:100780002D3758F50196A11DB11D2093B801809316
:10079000B9019093BA01A093BB01B093BC018091C1
:1007A000BD019091BE01A091BF01B091C001019621
:1007B000A11DB11D8093BD019093BE01A093BF0107
:1007C000B093C001BF91AF919F918F913F912F91B5
:1007D0000F900FBE0F901F90189526E8230F0296DA
:1007E000A11DB11DD2CF1F920F920FB60F921124EF
:1007F0002F933F934F935F936F937F938F939F9329
:10080000AF93BF93EF93FF938091B900887F8036B9
:1008100009F44AC0F0F5883209F4A7C018F5803110
:1008200009F49BC0B8F4882309F4F9C0883009F4AE
:1008300094C0FF91EF91BF91AF919F918F917F9164
:100840006F915F914F913F912F910F900FBE0F903D
:100850001F901895883109F488C0803251F7809331
:10086000910114C0803409F49DC040F48033B9F381
:100870008833F9F68093910185ECB0C0803509F496
:1008800085C0883509F496C0883499F60E94FA022A
:10089000D0CF883909F48CC038F5883729F050F466
:1008A000883611F0803729F683E080939201109208
:1008B000900157C0883809F47BC0803919F080381E
:1008C00009F0B7CF80919001803208F071C0E091BB
:1008D000900181E08E0F809390018091BB00F0E049
:1008E000E059FE4F80833DC0803B39F0E0F4803A10
:1008F00009F479C0883A09F09CCF84E08093920192
:1009000010926F0110926E01E091C301F091C40149
:10091000099580916E0181110FC081E080936E0175
:1009200010924E0109C0803C09F4A6CF883C09F41E
:10093000A3CF883B09F07DCFE0916F0181E08E0F5E
:1009400080936F01F0E0E25BFE4F80818093BB00FB
:1009500090916F0180916E0129C08091B7018093C1
:10096000BB0085EC8093BC0064CF9091B601809170
:10097000B501981758F5E091B60181E08E0F80938C
:10098000B601F0E0EB56FE4F8081E9CFE091B60171
:1009900081E08E0F8093B6018091BB00F0E0EB56B2
:1009A000FE4F80839091B6018091B5019817C8F2EF
:1009B00085E8D8CFE091B60181E08E0F8093B60133
:1009C0008091BB00F0E0EB56FE4F80838091940154
:1009D00081115CCF81E08093930184EA8093BC0015
:1009E0001092920126CF85EC8093BC001092920168
:1009F00080919001803230F4E0919001F0E0E05974
:100A0000FE4F10826091900170E0E091C101F09181
:100A1000C20180E791E00995109290010ACF1092EF
:100A2000910134CFEFECF1E01382128288EE93E073
:100A3000A0E0B0E084839583A683B78324E031E00F
:100A40003183208325EC30E03587248724EC30E0A7
:100A50003787268720EC30E0318B208B21EC30E08B
:100A6000338B228B22EC30E0358B248B26EC30E06C
:100A7000378B268B118E128E138E148EECE6F2E0DD
:100A80001382128284839583A683B78386E191E0E3
:100A9000918380830895CF93DF93CDB7DEB7A1977D
:100AA0000FB6F894DEBF0FBECDBF789484B58260D8
:100AB00084BD84B5816084BD85B5826085BD85B502
:100AC000816085BD80916E00816080936E00109280
:100AD00081008091810082608093810080918100FB
:100AE000816080938100809180008160809380008C
:100AF0008091B10084608093B1008091B0008160EA
:100B00008093B00080917A00846080937A00809115
:100B10007A00826080937A0080917A00816080936D
:100B20007A0080917A00806880937A001092C100E8
:100B3000E091DF01F091E00182E08083E091DB0150
:100B4000F091DC011082E091DD01F091DE018FEC8B
:100B500080831092E701E091E301F091E40186E0E7
:100B60008083E091E101F091E201808180618083E6
:100B7000E091E101F091E201808188608083E09161
:100B8000E101F091E201808180688083E091E101E0
:100B9000F091E20180818F7D80831092C8011092D4
:100BA000C7011092C6011092C5010E948A0287E80F
:100BB00090E09093C4018093C30188E890E0909303
:100BC000C2018093C10182E18093BA008BEC92E074
:100BD0009093CA018093C901ECEAF0E02491E8E91E
:100BE000F0E08491882399F090E0880F991FFC0130
:100BF000EA57FF4FA591B491FC01E458FF4F85914E
:100C000094918FB7F894EC91E22BEC938FBF812CE9
:100C1000912C54018A949AE0C92ED12CE12CF12C0C
:100C200020E0222E20E0322EA091CD01B091CE0105
:100C30002EE937E00E94E906A50194010E94990679
:100C400029013A0182E3480E511C611C711C50922B
:100C5000CC014092CB0161E088E00E94BF01052CED
:100C6000000C66087708C301B2010E94300260E000
:100C700088E00E94BF01C301B2010E94300277FEEA
:100C800042C06DE28FEC91E00E945201222733278F
:100C9000A901241935094609570919A28E010F5DCA
:100CA0001F4FCA01B901A70196010E94B806605DF5
:100CB000F80162938F01211531054105510589F72E
:100CC0000115110561F001900020E9F73197AF019E
:100CD000401B510BB8018FEC91E00E94B20042E042
:100CE00050E064E271E08FEC91E00E94B2002114C8
:100CF000310409F499CF0E941C01882309F494CF90
:100D00000E94000091CF19A28E010F5D1F4FC301F9
:100D1000B201A70196010E94B80629013A01605D5F
:100D2000F80162938F01411451046104710479F751
:100D3000C7CF052E97FB1EF400940E94B00657FD06
:100D400007D00E94B80607FC03D04EF40C94B006FE
:100D500050954095309521953F4F4F4F5F4F0895E7
:100D600090958095709561957F4F8F4F9F4F089517
:100D7000A1E21A2EAA1BBB1BFD010DC0AA1FBB1F9F
:100D8000EE1FFF1FA217B307E407F50720F0A21B11
:100D9000B30BE40BF50B661F771F881F991F1A947E
:100DA00069F760957095809590959B01AC01BD01A8
:100DB000CF010895A29FB001B39FC001A39F700D02
:100DC000811D1124911DB29F700D811D1124911D53
:100DD00008950E94DA06B7FF0895821B930B0895C9
:100DE000EE0FFF1F0590F491E02D0994F894FFCFCA
:100DF000000000005201B200DF009F011001EE0070
:100E0000020100000000E602DB02F702A802D402A1
:080E1000B802A9020D0A00005E
:107E0000112484B714BE81FFF0D085E080938100F7
:107E100082E08093C00088E18093C10086E0809377
:107E2000C20080E18093C4008EE0C9D0259A86E02C
:107E300020E33CEF91E0309385002093840096BBD3
:107E4000B09BFECF1D9AA8958150A9F7CC24DD24C4
:107E500088248394B5E0AB2EA1E19A2EF3E0BF2EE7
:107E6000A2D0813461F49FD0082FAFD0023811F036
:107E7000013811F484E001C083E08DD089C08234E0
:107E800011F484E103C0853419F485E0A6D080C0E4
:107E9000853579F488D0E82EFF2485D0082F10E0AE
:107EA000102F00270E291F29000F111F8ED06801E7
:107EB0006FC0863521F484E090D080E0DECF843638
:107EC00009F040C070D06FD0082F6DD080E0C81688
:107ED00080E7D80618F4F601B7BEE895C0E0D1E017
:107EE00062D089930C17E1F7F0E0CF16F0E7DF06D8
:107EF00018F0F601B7BEE89568D007B600FCFDCFD4
:107F0000A601A0E0B1E02C9130E011968C91119780
:107F100090E0982F8827822B932B1296FA010C0160
:107F200087BEE89511244E5F5F4FF1E0A038BF0790
:107F300051F7F601A7BEE89507B600FCFDCF97BE46
:107F4000E89526C08437B1F42ED02DD0F82E2BD052
:107F50003CD0F601EF2C8F010F5F1F4F84911BD097
:107F6000EA94F801C1F70894C11CD11CFA94CF0C13
:107F7000D11C0EC0853739F428D08EE10CD085E9AC
:107F80000AD08FE07ACF813511F488E018D01DD067
:107F900080E101D065CF982F8091C00085FFFCCF94
:107FA0009093C60008958091C00087FFFCCF809118
:107FB000C00084FD01C0A8958091C6000895E0E648
:107FC000F0E098E1908380830895EDDF803219F02E
:107FD00088E0F5DFFFCF84E1DECF1F93182FE3DFCA
:107FE0001150E9F7F2DF1F91089580E0E8DFEE27F6
:047FF000FF270994CA
:027FFE00040479
:00000001FF
