:020000040000FA
:100000000C945D000C9485000C9485000C94850084
:100010000C9485000C9485000C9485000C9485004C
:100020000C9485000C9485000C9485000C9485003C
:100030000C9485000C9485000C9485000C9485002C
:100040000C94C2020C9485000C9485000C948500DD
:100050000C9485000C9485000C9485000C9485000C
:100060000C9485000C94850000000008000201003B
:100070000003040700000000000000000000000072
:10008000250028002B0000000000240027002A0083
:10009000040404040404040402020202020203032E
:1000A0000303030301020408102040800102040836
:1000B0001020010204081020910311241FBECFEF6D
:1000C000D8E0DEBFCDBF11E0A0E0B1E0EEE6F7E0A2
:1000D00002C005900D92A432B107D9F721E0A4E245
:1000E000B1E001C01D92A534B207E1F710E0CDE503
:1000F000D0E004C02197FE010E94AF03CC35D107A8
:10010000C9F70E940C030C94B5030C94000090E016
:10011000FC01EC55FF4F249180579F4FFC018491C7
:10012000882399F090E0880F991FFC01EA57FF4F50
:10013000A591B491FC01E458FF4F859194918FB73C
:10014000F894EC91E22BEC938FBF0895AF92BF929D
:10015000CF92DF92EF92FF920F931F93CF93DF9393
:100160006C017B018B01040F151FEB015E01AE18C2
:10017000BF08C017D10759F06991D601ED91FC91E4
:100180000190F081E02DC6010995892B79F7C50111
:10019000DF91CF911F910F91FF90EF90DF90CF9063
:1001A000BF90AF90089590E0FC01E859FF4F249173
:1001B000FC01EC55FF4F3491FC01E057FF4FE491F7
:1001C000EE23C9F0222339F0233001F1A8F42130C5
:1001D00019F1223029F1F0E0EE0FFF1FE458FF4F34
:1001E000A591B4918FB7F894EC91611126C0309528
:1001F0003E233C938FBF08952730A9F02830C9F0E3
:10020000243049F7809180008F7D03C08091800069
:100210008F7780938000DFCF84B58F7784BDDBCF6D
:1002200084B58F7DFBCF8091B0008F778093B00035
:10023000D2CF8091B0008F7DF9CF3E2BDACF3FB780
:10024000F8948091290190912A01A0912B01B091FD
:100250002C0126B5A89B05C02F3F19F00196A11DC2
:10026000B11D3FBFBA2FA92F982F8827BC01CD0100
:10027000620F711D811D911D42E0660F771F881F5F
:10028000991F4A95D1F708958F929F92AF92BF928E
:10029000CF92DF92EF92FF920E941F014B015C010F
:1002A00088EEC82E83E0D82EE12CF12C0E941F018D
:1002B000681979098A099B09683E7340810591058F
:1002C000A8F321E0C21AD108E108F10888EE880EEF
:1002D00083E0981EA11CB11CC114D104E104F104F7
:1002E00029F7FF90EF90DF90CF90BF90AF909F9055
:1002F0008F900895089590E080E00895CF93DF9364
:10030000EC0160E08E810E94D30061E08E810E944A
:10031000D30060E08E810E94D3008BE891E00197CA
:10032000F1F7DF91CF910895CF92DF92EF92FF9294
:100330000F931F93CF93DF936C017C0187E0E80E4E
:10034000F11CD0E0C0E0062F10E0B8010C2E02C076
:10035000759567950A94E2F76170F70181917F01C5
:100360000E94D3002196C430D10579F7C601DF91F0
:10037000CF911F910F91FF90EF90DF90CF900C9451
:100380007E01CF92DF92EF92FF920F931F93CF9354
:10039000DF93EC01F62E642F8C810E94D3008D81B7
:1003A0008F3F19F060E00E94D3000F2D10E08F8581
:1003B00084FF25C06E0187E0C80ED11CF12CE12C12
:1003C000B8010E2C02C0759567950A94E2F761702A
:1003D000F60181916F010E94D300FFEFEF1AFF0A2F
:1003E00088E0E816F10461F7CE01DF91CF911F910B
:1003F0000F91FF90EF90DF90CF900C947E01B801A9
:1004000084E0759567958A95E1F7CE010E94940185
:100410006F2DCE01DF91CF911F910F91FF90EF9043
:10042000DF90CF900C94940140E0682F8DE291E032
:100430000C94C101CF93DF93823029F490913C0159
:10044000986090933C01809340011092410180E4B8
:100450008093420180E18093430180E580934401D1
:10046000809131010E948700809132018F3F11F00D
:100470000E948700809133010E948700CDE2D1E085
:100480009E012D52314080913C0184FD0AC084E0E0
:1004900090E02196281739073CF48E810E9487004E
:1004A000EFCF88E090E0F5CF8BE39DE00197F1F787
:1004B00060E0809131010E94D30060E080913301BF
:1004C0000E94D300809132018F3F19F060E00E94BA
:1004D000D30080913C0184FD39C063E08DE291E05E
:1004E0000E949401CBE4D6E4CE010197F1F763E0DA
:1004F0008DE291E00E9494012197F1F763E08DE293
:1005000091E00E94940183E592E00197F1F762E0A7
:100510008DE291E00E94940180913C0180620E94F2
:10052000140284E080933D018CE00E94140281E07B
:100530000E9414028BE39FE10197F1F782E0809320
:100540003E0186E0DF91CF910C94140280620E94FC
:1005500014028BE496E40197F1F780913C018062EC
:100560000E94140283E592E00197F1F780913C012B
:1005700080620E941402D0CF41E00E94C10181E05C
:1005800090E008951F920F920FB60F9211242F93AF
:100590003F938F939F93AF93BF9380912501909149
:1005A0002601A0912701B09128013091240123E078
:1005B000230F2D3758F50196A11DB11D209324015D
:1005C0008093250190932601A0932701B0932801E1
:1005D0008091290190912A01A0912B01B0912C01C9
:1005E0000196A11DB11D8093290190932A01A0932A
:1005F0002B01B0932C01BF91AF919F918F913F91AF
:100600002F910F900FBE0F901F90189526E8230F83
:100610000296A11DB11DD2CF789484B5826084BDAD
:1006200084B5816084BD85B5826085BD85B58160F6
:1006300085BD80916E00816080936E001092810074
:10064000809181008260809381008091810081602F
:1006500080938100809180008160809380008091F0
:10066000B10084608093B1008091B000816080937C
:10067000B00080917A00846080937A0080917A0043
:10068000826080937A0080917A00816080937A0002
:1006900080917A00806880937A001092C10082E095
:1006A0000E941A02CBE3DFE100E010E0E1E080917C
:1006B00040018111E0E0E195F0E0E35DFE4F8489C7
:1006C00080680E94140249E050E06CE071E08DE225
:1006D00091E00E94A600E0914001E23000F5E15077
:1006E000F0E0E35DFE4F848980680E9414024CE0D4
:1006F00050E066E171E08DE291E00E94A6000E9468
:10070000440181E00E941402CE010197F1F70E949A
:1007100044010115110551F20E940000C7CFE1E02C
:10072000DFCFEDE2F1E01382128284E091E0918369
:1007300080838CE084838FEF85838BE0868385E0E4
:10074000878384E0808783E0818782E082871386C5
:10075000148615861686178681E00C941A02EE0F11
:10076000FF1F0590F491E02D0994F894FFCF00004D
:100770000000BC02A6007B017A01486F6C61205228
:10078000414D530050726F6772616D6163696F6EA6
:02079000000067
:107E0000112484B714BE81FFF0D085E080938100F7
:107E100082E08093C00088E18093C10086E0809377
:107E2000C20080E18093C4008EE0C9D0259A86E02C
:107E300020E33CEF91E0309385002093840096BBD3
:107E4000B09BFECF1D9AA8958150A9F7CC24DD24C4
:107E500088248394B5E0AB2EA1E19A2EF3E0BF2EE7
:107E6000A2D0813461F49FD0082FAFD0023811F036
:107E7000013811F484E001C083E08DD089C08234E0
:107E800011F484E103C0853419F485E0A6D080C0E4
:107E9000853579F488D0E82EFF2485D0082F10E0AE
:107EA000102F00270E291F29000F111F8ED06801E7
:107EB0006FC0863521F484E090D080E0DECF843638
:107EC00009F040C070D06FD0082F6DD080E0C81688
:107ED00080E7D80618F4F601B7BEE895C0E0D1E017
:107EE00062D089930C17E1F7F0E0CF16F0E7DF06D8
:107EF00018F0F601B7BEE89568D007B600FCFDCFD4
:107F0000A601A0E0B1E02C9130E011968C91119780
:107F100090E0982F8827822B932B1296FA010C0160
:107F200087BEE89511244E5F5F4FF1E0A038BF0790
:107F300051F7F601A7BEE89507B600FCFDCF97BE46
:107F4000E89526C08437B1F42ED02DD0F82E2BD052
:107F50003CD0F601EF2C8F010F5F1F4F84911BD097
:107F6000EA94F801C1F70894C11CD11CFA94CF0C13
:107F7000D11C0EC0853739F428D08EE10CD085E9AC
:107F80000AD08FE07ACF813511F488E018D01DD067
:107F900080E101D065CF982F8091C00085FFFCCF94
:107FA0009093C60008958091C00087FFFCCF809118
:107FB000C00084FD01C0A8958091C6000895E0E648
:107FC000F0E098E1908380830895EDDF803219F02E
:107FD00088E0F5DFFFCF84E1DECF1F93182FE3DFCA
:107FE0001150E9F7F2DF1F91089580E0E8DFEE27F6
:047FF000FF270994CA
:027FFE00040479
:00000001FF
