:100000000C945D000C9485000C9485000C94850084
:100010000C9485000C9485000C9485000C9485004C
:100020000C9485000C9485000C9485000C9485003C
:100030000C9485000C9485000C9485000C9485002C
:100040000C947D030C9485000C9485000C94850021
:100050000C9485000C9485000C9485000C9485000C
:100060000C94C7030C9485000000000800020100F6
:100070000003040700000000000000000000000072
:10008000250028002B0000000000240027002A0083
:10009000040404040404040402020202020203032E
:1000A0000303030301020408102040800102040836
:1000B0001020010204081020E60411241FBECFEF17
:1000C000D8E0DEBFCDBF11E0A0E0B1E0EEE3FCE0A0
:1000D00002C005900D92A232B107D9F721E0A2E249
:1000E000B1E001C01D92AB3EB207E1F710E0CDE5F3
:1000F000D0E004C02197FE010E941706CC35D1073D
:10010000C9F70E9414050C941D060C94000090E0A1
:10011000FC01EC55FF4F249180579F4FFC018491C7
:10012000882399F090E0880F991FFC01EA57FF4F50
:10013000A591B491FC01E458FF4F859194918FB73C
:10014000F894EC91E22BEC938FBF08950895CF9330
:10015000DF93AC01E091C301F091C4013097F1F05D
:100160009091C2018091C1019817C0F090E0292FB1
:1001700030E02617370754F4D901AE5DBE4F240F87
:10018000351FE90128812C939F5FF1CF1092C201A6
:100190006093C101CB01DF91CF910994DF91CF91A1
:1001A0000895AF92BF92CF92DF92EF92FF920F939A
:1001B0001F93CF93DF936C017B018B01040F151FFD
:1001C000EB015E01AE18BF08C017D10759F0699165
:1001D000D601ED91FC910190F081E02DC6010995C9
:1001E000892B79F7C501DF91CF911F910F91FF9076
:1001F000EF90DF90CF90BF90AF90089590E0FC011A
:10020000E859FF4F2491FC01EC55FF4F3491FC015C
:10021000E057FF4FE491EE23C9F0222339F0233059
:1002200001F1A8F4213019F1223029F1F0E0EE0FAC
:10023000FF1FE458FF4FA591B4918FB7F894EC914C
:10024000611126C030953E233C938FBF089527301F
:10025000A9F02830C9F0243049F7809180008F7DC3
:1002600003C0809180008F7780938000DFCF84B5BA
:100270008F7784BDDBCF84B58F7DFBCF8091B000BD
:100280008F778093B000D2CF8091B0008F7DF9CF6F
:100290003E2BDACF089520916801260F3327331FB4
:1002A00021323105ECF420918C01FC0190E080E0DA
:1002B000243069F082E00895A09168012191AC0199
:1002C000485B5E4FA40FB52FB11D2C930196861786
:1002D00098F380916801680F6093680180E0089549
:1002E00081E0089510928C0181E080938E0110923C
:1002F0008D0161E082E10E94FE0061E083E10E94E5
:10030000FE00E9EBF0E080818E7F808380818D7F2D
:10031000808388E48093B80085E48093BC000895CE
:100320000895E091C2018091C101E81730F4F0E036
:10033000EE5DFE4F808190E008958FEF9FEF08956E
:100340009091C2018091C1012FEF3FEF981748F4BF
:10035000E92FF0E0EE5DFE4F208130E09F5F90934B
:10036000C201C901089587EC91E00E94A001909319
:10037000C6018093C50108958091C1019091C20189
:10038000891B990B0895CF93DF93CB01EA01642F6A
:100390000E944B01CE01DF91CF910895CF93DF935F
:1003A0001F92CDB7DEB7698361E0CE0101960E944E
:1003B0004B0181E090E00F90DF91CF91089590E0A4
:1003C00080E00895CF93DF93EC0160E08E810E947E
:1003D000FE0061E08E810E94FE0060E08E810E943E
:1003E000FE008BE891E00197F1F7DF91CF9108953E
:1003F000CF92DF92EF92FF920F931F93CF93DF93F1
:100400006C017C0187E0E80EF11CD0E0C0E0062F13
:1004100010E0B8010C2E02C0759567950A94E2F7BA
:100420006170F70181917F010E94FE002196C43026
:10043000D10579F7C601DF91CF911F910F91FF9000
:10044000EF90DF90CF900C94E201CF92DF92EF9289
:10045000FF920F931F93CF93DF93EC01F62E642F3F
:100460008C810E94FE008D818F3F19F060E00E9418
:10047000FE000F2D10E08F8584FF25C06E0187E000
:10048000C80ED11CF12CE12CB8010E2C02C07595C0
:1004900067950A94E2F76170F60181916F010E94FD
:1004A000FE00FFEFEF1AFF0A88E0E816F10461F79B
:1004B000CE01DF91CF911F910F91FF90EF90DF90D0
:1004C000CF900C94E201B80184E0759567958A9508
:1004D000E1F7CE010E94F8016F2DCE01DF91CF919F
:1004E0001F910F91FF90EF90DF90CF900C94F80147
:1004F00040E0682F83ED91E00C942502CF93DF93C9
:10050000823029F49091E20198609093E201809307
:10051000E6011092E70180E48093E80180E1809396
:10052000E90180E58093EA018091D7010E9487006C
:100530008091D8018F3F11F00E9487008091D901EE
:100540000E948700C3EDD1E09E01235D3140809180
:10055000E20184FD0AC084E090E021962817390763
:100560003CF48E810E948700EFCF88E090E0F5CFC9
:100570008BE39DE00197F1F760E08091D7010E9445
:10058000FE0060E08091D9010E94FE008091D801B8
:100590008F3F19F060E00E94FE008091E20184FD2F
:1005A00039C063E083ED91E00E94F801CBE4D6E42A
:1005B000CE010197F1F763E083ED91E00E94F8012D
:1005C0002197F1F763E083ED91E00E94F80183E564
:1005D00092E00197F1F762E083ED91E00E94F8016B
:1005E0008091E20180620E94780284E08093E301BE
:1005F0008CE00E94780281E00E9478028BE39FE108
:100600000197F1F782E08093E40186E0DF91CF91DA
:100610000C94780280620E9478028BE496E4019741
:10062000F1F78091E20180620E94780283E592E016
:100630000197F1F78091E20180620E947802D0CFA9
:1006400041E00E94250281E090E00895CF93DF937E
:1006500085ED8093BC008091440190914501A0916B
:100660004601B09147010796A11DB11D23E0B69543
:10067000A795979587952A95D1F72091BC0024FDE1
:1006800003C010928C0136C0409144015091450145
:100690006091460170914701452B462B472B69F32A
:1006A0000097A105B10541F025E32A95F1F7000077
:1006B0000197A109B109E1CF8091430191E09093A5
:1006C00042018823B9F0C091B800D091BA0080915E
:1006D000BC008A7B8093BC0060E082E10E94FE0047
:1006E00060E083E10E94FE000E947201D093BA0094
:1006F000C093B800DF91CF9108951F920F920FB66B
:100700000F9211242F933F938F939F93AF93BF9397
:100710008091B7019091B801A091B901B091BA014F
:100720003091B60123E0230F2D3758F50196A11D16
:10073000B11D2093B6018093B7019093B801A093A7
:10074000B901B093BA018091B2019091B301A09127
:10075000B401B091B5010196A11DB11D8093B20104
:100760009093B301A093B401B093B501BF91AF9141
:100770009F918F913F912F910F900FBE0F901F90DF
:10078000189526E8230F0296A11DB11DD2CF1F9206
:100790000F920FB60F9211242F933F934F935F93B5
:1007A0006F937F938F939F93AF93BF93EF93FF9339
:1007B0008091B900887F803609F44AC0F0F588320C
:1007C00009F4A7C018F5803109F49BC0B8F4882358
:1007D00009F4F9C0883009F494C0FF91EF91BF91FA
:1007E000AF919F918F917F916F915F914F913F91C9
:1007F0002F910F900FBE0F901F901895883109F41C
:1008000088C0803251F780938B0114C0803409F482
:100810009DC040F48033B9F38833F9F680938B019F
:1008200085ECB0C0803509F485C0883509F496C0E0
:10083000883499F60E942603D0CF883909F48CC0F9
:1008400038F5883729F050F4883611F0803729F6CA
:1008500083E080938C0110928A0157C0883809F494
:100860007BC0803919F0803809F0B7CF80918A01B8
:10087000803208F071C0E0918A0181E08E0F809390
:100880008A018091BB00F0E0E659FE4F80833DC0B5
:10089000803B39F0E0F4803A09F479C0883A09F0F5
:1008A0009CCF84E080938C011092690110926801C2
:1008B000E091BD01F091BE0109958091680181111F
:1008C0000FC081E0809368011092480109C0803C0C
:1008D00009F4A6CF883C09F4A3CF883B09F07DCF6B
:1008E000E091690181E08E0F80936901F0E0E85B9F
:1008F000FE4F80818093BB009091690180916801D7
:1009000029C08091B1018093BB0085EC8093BC002D
:1009100064CF9091B0018091AF01981758F5E091A4
:10092000B00181E08E0F8093B001F0E0E157FE4FFF
:100930008081E9CFE091B00181E08E0F8093B0011A
:100940008091BB00F0E0E157FE4F80839091B001B1
:100950008091AF019817C8F285E8D8CFE091B00137
:1009600081E08E0F8093B0018091BB00F0E0E157F1
:10097000FE4F808380918E0181115CCF81E0809356
:100980008D0184EA8093BC0010928C0126CF85EC07
:100990008093BC0010928C0180918A01803230F4E7
:1009A000E0918A01F0E0E659FE4F108260918A01E1
:1009B00070E0E091BB01F091BC018AE691E00995FD
:1009C00010928A010ACF10928B0134CFE7ECF1E04C
:1009D0001382128288EE93E0A0E0B0E084839583D6
:1009E000A683B78384E091E091838083E3EDF1E017
:1009F0001382128286E191E0918380838CE084836C
:100A00008FEF85838BE0868385E0878384E0808712
:100A100083E0818782E08287138614861586168696
:100A2000178681E00C947E02CF93DF93CDB7DEB7BB
:100A3000A1970FB6F894DEBF0FBECDBF789484B5F2
:100A4000826084BD84B5816084BD85B5826085BDCA
:100A500085B5816085BD80916E00816080936E0058
:100A6000109281008091810082608093810080914A
:100A700081008160809381008091800081608093FB
:100A800080008091B10084608093B1008091B000BB
:100A900081608093B00080917A00846080937A00B6
:100AA00080917A00826080937A0080917A008160E0
:100AB00080937A0080917A00806880937A00109207
:100AC000C10082E00E947E021092C2011092C10118
:100AD0001092C0011092BF010E94720186EA90E05C
:100AE0009093BE018093BD0187EA90E09093BC0192
:100AF0008093BB0182E18093BA0083EB91E09093F5
:100B0000C4018093C3018AE0882E912CA12CB12CC2
:100B100000E010E0E1E08091E6018111E0E0E19584
:100B2000F0E0ED52FE4F848980680E947802C09008
:100B3000C501D090C6010D2C000CEE08FF08F7FE91
:100B40003EC041E06DE283ED91E00E942502222744
:100B50003327A9012C193D094E095F0919A2CE01BD
:100B600081967C01CA01B901A50194010E94F50595
:100B7000605DF70162937F01211531054105510543
:100B800089F7E114F10461F001900020E9F7319751
:100B9000AF014E195F09B70183ED91E00E94D100CA
:100BA00042E050E06EE171E083ED91E00E94D100FF
:100BB0000115110509F4AECF0E940000ABCFA701CB
:100BC000960119A2CE0181967C01CA01B901A50145
:100BD00094010E94F505605DF70162937F01211584
:100BE00031054105510589F7CCCFA1E21A2EAA1B88
:100BF000BB1BFD010DC0AA1FBB1FEE1FFF1FA217CD
:100C0000B307E407F50720F0A21BB30BE40BF50BC9
:100C1000661F771F881F991F1A9469F76095709552
:100C2000809590959B01AC01BD01CF010895EE0F19
:0E0C3000FF1F0590F491E02D0994F894FFCF7A
:100C3E0000000000CE01C301DF019001BC01A00144
:100C4E009101000000002003D100DF014A010D0ACE
:020C5E00000094
:00000001FF
