:100000000C945D000C9485000C9485000C94850084
:100010000C9485000C9485000C9485000C9485004C
:100020000C9485000C9485000C9485000C9485003C
:100030000C9485000C9485000C9485000C9485002C
:100040000C94FF010C9485000C946F020C944902EF
:100050000C9485000C9485000C9485000C9485000C
:100060000C9485000C94850000000008000201003B
:100070000003040700000000000000000000000072
:10008000250028002B0000000000240027002A0083
:10009000040404040404040402020202020203032E
:1000A0000303030301020408102040800102040836
:1000B00010200102040810205F0311241FBECFEF9F
:1000C000D8E0DEBFCDBF11E0A0E0B1E0E8E2F7E0AC
:1000D00002C005900D92AC32B107D9F721E0ACE235
:1000E000B1E001C01D92A53DB207E1F710E0CDE5FA
:1000F000D0E004C02197FE010E948C03CC35D107CB
:10010000C9F70E94B3020C9492030C94000090E093
:10011000FC01EC55FF4F249180579F4FFC018491C7
:10012000882399F090E0880F991FFC01EA57FF4F50
:10013000A591B491FC01E458FF4F859194918FB73C
:10014000F894EC91E22BEC938FBF0895AF92BF929D
:10015000CF92DF92EF92FF920F931F93CF93DF9393
:100160006C017B018B01040F151FEB015E01AE18C2
:10017000BF08C017D10759F06991D601ED91FC91E4
:100180000190F081E02DC6010995892B79F7C50111
:10019000DF91CF911F910F91FF90EF90DF90CF9063
:1001A000BF90AF900895FC01538D448D252F30E012
:1001B000842F90E0821B930B541710F0CF96089574
:1001C00001970895FC01918D828D981761F0A28DA1
:1001D000AE0FBF2FB11D5D968C91928D9F5F9F7367
:1001E000928F90E008958FEF9FEF0895FC01918D1D
:1001F000828D981731F0828DE80FF11D858D90E08A
:1002000008958FEF9FEF0895FC01918D228D892F26
:1002100090E0805C9F4F821B91098F73992708950E
:100220008DE291E00E94040121E0892B09F420E095
:10023000822F089580E090E0892B29F00E94100120
:1002400081110C9400000895FC01A48DA80FB92F12
:10025000B11DA35ABF4F2C91848D90E001968F73EE
:100260009927848FA689B7892C93A089B1898C910D
:10027000837080648C93938D848D981306C002885C
:10028000F389E02D80818F7D80830895EF92FF9226
:100290000F931F93CF93DF93EC0181E0888F9B8DA9
:1002A0008C8D98131AC0E889F989808185FF15C063
:1002B0009FB7F894EE89FF896083E889F989808186
:1002C0008370806480839FBF81E090E0DF91CF9155
:1002D0001F910F91FF90EF900895F62E0B8D10E077
:1002E0000F5F1F4F0F731127E02E8C8D8E110CC0E6
:1002F0000FB607FCFACFE889F989808185FFF5CF31
:10030000CE010E942401F1CFEB8DEC0FFD2FF11DEA
:10031000E35AFF4FF0829FB7F8940B8FEA89FB896D
:1003200080818062CFCFCF93DF93EC01888D8823CB
:10033000B9F0AA89BB89E889F9898C9185FD03C048
:10034000808186FD0DC00FB607FCF7CF8C9185FF2D
:10035000F2CF808185FFEDCFCE010E942401E9CF4D
:10036000DF91CF91089590E0FC01E859FF4F24916F
:10037000FC01EC55FF4F3491FC01E057FF4FE49135
:10038000EE23C9F0222339F0233001F1A8F4213003
:1003900019F1223029F1F0E0EE0FFF1FE458FF4F72
:1003A000A591B4918FB7F894EC91611126C0309566
:1003B0003E233C938FBF08952730A9F02830C9F021
:1003C000243049F7809180008F7D03C080918000A8
:1003D0008F7780938000DFCF84B58F7784BDDBCFAC
:1003E00084B58F7DFBCF8091B0008F778093B00074
:1003F000D2CF8091B0008F7DF9CF3E2BDACF1F9204
:100400000F920FB60F9211242F933F938F939F93C8
:10041000AF93BF938091D1019091D201A091D3016C
:10042000B091D4013091D00123E0230F2D3758F53E
:100430000196A11DB11D2093D0018093D10190930D
:10044000D201A093D301B093D4018091CC019091BB
:10045000CD01A091CE01B091CF010196A11DB11D9A
:100460008093CC019093CD01A093CE01B093CF01A6
:10047000BF91AF919F918F913F912F910F900FBEA0
:100480000F901F90189526E8230F0296A11DB11D0D
:10049000D2CF1F920F920FB60F9211242F933F933A
:1004A0004F935F936F937F938F939F93AF93BF937C
:1004B000EF93FF938DE291E00E942401FF91EF9171
:1004C000BF91AF919F918F917F916F915F914F916C
:1004D0003F912F910F900FBE0F901F9018951F9274
:1004E0000F920FB60F9211242F938F939F93EF9338
:1004F000FF93E0913D01F0913E018081E091430145
:10050000F091440182FD1BC09081809146018F5F74
:100510008F7320914701821741F0E0914601F0E08E
:10052000E35DFE4F958F80934601FF91EF919F9180
:100530008F912F910F900FBE0F901F901895808173
:10054000F4CF1F920F920FB60F9211248F938EB596
:100550008093CA0181E08093CB018F910F900FBEF1
:100560000F901F901895789484B5826084BD84B5EF
:10057000816084BD85B5826085BD85B5816085BD9E
:1005800080916E00816080936E0010928100809156
:1005900081008260809381008091810081608093DE
:1005A0008100809180008160809380008091B10003
:1005B00084608093B1008091B00081608093B0002E
:1005C00080917A00846080937A0080917A008260C2
:1005D00080937A0080917A00816080937A00809184
:1005E0007A00806880937A001092C100E0913D010A
:1005F000F0913E0182E08083E0913901F0913A016F
:100600001082E0913B01F0913C0180E180831092E7
:100610004501E0914101F091420186E08083E09143
:100620003F01F0914001808180618083E0913F0132
:10063000F0914001808188608083E0913F01F091DA
:100640004001808180688083E0913F01F09140010A
:1006500080818F7D808387E00E9487008CE00E94EC
:1006600087008CB580648CBD8CB580688CBDC0E083
:10067000D0E08091CB01882381F08091CA01813044
:10068000A9F461E087E00E94B3014DE050E062E12F
:1006900071E08DE291E00E94A600209751F30E9444
:1006A0001001882331F30E940000E3CF60E087E06F
:1006B0000E94B3014BE050E060E271E0EACFEDE26E
:1006C000F1E01382128288EE93E0A0E0B0E0848330
:1006D0009583A683B78384E091E09183808385EC42
:1006E00090E09587848784EC90E09787868780ECFC
:1006F00090E0918B808B81EC90E0938B828B82ECED
:1007000090E0958B848B86EC90E0978B868B118E96
:10071000128E138E148E0895EE0FFF1F0590F49124
:08072000E02D0994F894FFCFCD
:10072800000000004601A600D30093010401E20086
:10073800F6004C454420456E63656E6469646F003D
:0C0748004C4544204170616761646F0003
:00000001FF
