:100000000C945D000C9485000C9485000C94850084
:100010000C9485000C9485000C9485000C9485004C
:100020000C9485000C9485000C9485000C9485003C
:100030000C9485000C9485000C9485000C9485002C
:100040000C94CF020C9485000C949D020C947702C2
:100050000C9485000C9485000C9485000C9485000C
:100060000C9485000C94850000000008000201003B
:100070000003040700000000000000000000000072
:10008000250028002B0000000000240027002A0083
:10009000040404040404040402020202020203032E
:1000A0000303030301020408102040800102040836
:1000B0001020010204081020BE0311241FBECFEF40
:1000C000D8E0DEBFCDBF11E0A0E0B1E0E6EEF7E0A2
:1000D00002C005900D92A634B107D9F721E0A6E43D
:1000E000B1E001C01D92AC3EB207E1F710E0CDE5F2
:1000F000D0E004C02197FE010E94EB03CC35D1076C
:10010000C9F70E9419030C94F1030C94000090E0CD
:10011000FC01EC55FF4F249180579F4FFC018491C7
:10012000882399F090E0880F991FFC01EA57FF4F50
:10013000A591B491FC01E458FF4F859194918FB73C
:10014000F894EC91E22BEC938FBF0895AF92BF929D
:10015000CF92DF92EF92FF920F931F93CF93DF9393
:100160006C017B018B01040F151FEB015E01AE18C2
:10017000BF08C017D10759F06991D601ED91FC91E4
:100180000190F081E02DC6010995892B79F7C50111
:10019000DF91CF911F910F91FF90EF90DF90CF9063
:1001A000BF90AF900895FC01538D448D252F30E012
:1001B000842F90E0821B930B541710F0CF96089574
:1001C00001970895FC01918D828D981761F0A28DA1
:1001D000AE0FBF2FB11D5D968C91928D9F5F9F7367
:1001E000928F90E008958FEF9FEF0895FC01918D1D
:1001F000828D981731F0828DE80FF11D858D90E08A
:1002000008958FEF9FEF0895FC01918D228D892F26
:1002100090E0805C9F4F821B91098F73992708950E
:100220008FE491E00E94040121E0892B09F420E091
:10023000822F089580E090E0892B29F00E94100120
:1002400081110C9400000895FC01A48DA80FB92F12
:10025000B11DA35ABF4F2C91848D90E001968F73EE
:100260009927848FA689B7892C93A089B1898C910D
:10027000837080648C93938D848D981306C002885C
:10028000F389E02D80818F7D80830895EF92FF9226
:100290000F931F93CF93DF93EC0181E0888F9B8DA9
:1002A0008C8D98131AC0E889F989808185FF15C063
:1002B0009FB7F894EE89FF896083E889F989808186
:1002C0008370806480839FBF81E090E0DF91CF9155
:1002D0001F910F91FF90EF900895F62E0B8D10E077
:1002E0000F5F1F4F0F731127E02E8C8D8E110CC0E6
:1002F0000FB607FCFACFE889F989808185FFF5CF31
:10030000CE010E942401F1CFEB8DEC0FFD2FF11DEA
:10031000E35AFF4FF0829FB7F8940B8FEA89FB896D
:1003200080818062CFCFCF93DF93EC01888D8823CB
:10033000B9F0AA89BB89E889F9898C9185FD03C048
:10034000808186FD0DC00FB607FCF7CF8C9185FF2D
:10035000F2CF808185FFEDCFCE010E942401E9CF4D
:10036000DF91CF91089590E0FC01E859FF4F24916F
:10037000FC01EC55FF4F3491FC01E057FF4FE49135
:10038000EE23C9F0222339F0233001F1A8F4213003
:1003900019F1223029F1F0E0EE0FFF1FE458FF4F72
:1003A000A591B4918FB7F894EC91611126C0309566
:1003B0003E233C938FBF08952730A9F02830C9F021
:1003C000243049F7809180008F7D03C080918000A8
:1003D0008F7780938000DFCF84B58F7784BDDBCFAC
:1003E00084B58F7DFBCF8091B0008F778093B00074
:1003F000D2CF8091B0008F7DF9CF3E2BDACF3FB7BF
:10040000F89480914B0190914C01A0914D01B091D5
:100410004E0126B5A89B05C02F3F19F00196A11DDE
:10042000B11D3FBFBA2FA92F982F8827BC01CD013E
:10043000620F711D811D911D42E0660F771F881F9D
:10044000991F4A95D1F708958F929F92AF92BF92CC
:10045000CF92DF92EF92FF920E94FF014B015C016D
:1004600088E8C82E83E1D82EE12CF12C0E94FF01F0
:10047000681979098A099B09683E734081059105CD
:10048000A8F321E0C21AD108E108F10888EE880E2D
:1004900083E0981EA11CB11CC114D104E104F10435
:1004A00029F7FF90EF90DF90CF90BF90AF909F9093
:1004B0008F900895CF93DF93FC0101900020E9F71E
:1004C0003197AF01481B590BBC018FE491E00E94AA
:1004D000A600EC0142E050E062E171E08FE491E0BF
:1004E0000E94A6008C0F9D1FDF91CF9108951F924F
:1004F0000F920FB60F9211242F933F934F935F9358
:100500006F937F938F939F93AF93BF93EF93FF93DB
:100510008FE491E00E942401FF91EF91BF91AF9190
:100520009F918F917F916F915F914F913F912F910B
:100530000F900FBE0F901F9018951F920F920FB63D
:100540000F9211242F938F939F93EF93FF93E0913A
:100550005F01F09160018081E0916501F091660199
:1005600082FD1BC09081809168018F5F8F73209105
:100570006901821741F0E0916801F0E0E15BFE4F14
:10058000958F80936801FF91EF919F918F912F91AB
:100590000F900FBE0F901F9018958081F4CF1F927F
:1005A0000F920FB60F9211242F933F938F939F9327
:1005B000AF93BF938091470190914801A091490169
:1005C000B0914A013091460123E0230F2D3758F5B1
:1005D0000196A11DB11D2093460180934701909380
:1005E0004801A0934901B0934A0180914B01909139
:1005F0004C01A0914D01B0914E010196A11DB11D7C
:1006000080934B0190934C01A0934D01B0934E0108
:10061000BF91AF919F918F913F912F910F900FBEFE
:100620000F901F90189526E8230F0296A11DB11D6B
:10063000D2CF789484B5826084BD84B5816084BD56
:1006400085B5826085BD85B5816085BD80916E0070
:10065000816080936E0010928100809181008260A1
:1006600080938100809181008160809381008091DE
:1006700080008160809380008091B10084608093CD
:10068000B1008091B00081608093B00080917A00C9
:10069000846080937A0080917A00826080937A00EF
:1006A00080917A00816080937A0080917A008068DE
:1006B00080937A001092C100E0915F01F091600197
:1006C00082E08083E0915B01F0915C011082E09117
:1006D0005D01F0915E018FEC808310926701E091E3
:1006E0006301F091640186E08083E0916101F09103
:1006F0006201808180618083E0916101F0916201FB
:10070000808188608083E0916101F0916201808145
:1007100080688083E0916101F091620180818F7D2A
:10072000808383E00E94870082E00E948700C0E00F
:10073000D0E085E191E00E945A0261E083E00E94EE
:10074000B30160E082E00E94B3010E9424028BE2C8
:1007500091E00E945A0261E082E00E94B30160E0F1
:1007600083E00E94B3010E942402209711F30E94AB
:1007700010018823F1F20E940000DBCFEFE4F1E0EA
:100780001382128288EE93E0A0E0B0E08483958328
:10079000A683B78384E091E09183808385EC90E029
:1007A0009587848784EC90E09787868780EC90E03B
:1007B000918B808B81EC90E0938B828B82EC90E02C
:1007C000958B848B86EC90E0978B868B118E128EA6
:1007D000138E148E0895EE0FFF1F0590F491E02DF7
:0607E0000994F894FFCF1C
:1007E600000000004601A600D30093010401E200C8
:1007F600F6000D0A004769726F206465206D6F74FC
:100806006F7220686F726172696F004769726F203C
:100816006465206D6F746F7220616E74692D686FE8
:06082600726172696F00AF
:00000001FF
